{
  "contractName": "BeerBar",
  "abi": [
    {
      "inputs": [],
      "stateMutability": "nonpayable",
      "type": "constructor"
    },
    {
      "anonymous": false,
      "inputs": [],
      "name": "BarClosed",
      "type": "event"
    },
    {
      "anonymous": false,
      "inputs": [],
      "name": "BarOpened",
      "type": "event"
    },
    {
      "anonymous": false,
      "inputs": [
        {
          "indexed": false,
          "internalType": "address",
          "name": "account",
          "type": "address"
        }
      ],
      "name": "BarkeeperAdded",
      "type": "event"
    },
    {
      "anonymous": false,
      "inputs": [
        {
          "indexed": false,
          "internalType": "address",
          "name": "account",
          "type": "address"
        }
      ],
      "name": "BarkeeperRemoved",
      "type": "event"
    },
    {
      "anonymous": false,
      "inputs": [
        {
          "indexed": true,
          "internalType": "address",
          "name": "from",
          "type": "address"
        },
        {
          "indexed": false,
          "internalType": "uint256",
          "name": "amount",
          "type": "uint256"
        }
      ],
      "name": "BeerCanceled",
      "type": "event"
    },
    {
      "anonymous": false,
      "inputs": [
        {
          "indexed": true,
          "internalType": "address",
          "name": "from",
          "type": "address"
        },
        {
          "indexed": false,
          "internalType": "uint256",
          "name": "amount",
          "type": "uint256"
        }
      ],
      "name": "BeerOrdered",
      "type": "event"
    },
    {
      "anonymous": false,
      "inputs": [
        {
          "indexed": true,
          "internalType": "address",
          "name": "from",
          "type": "address"
        },
        {
          "indexed": false,
          "internalType": "uint256",
          "name": "amount",
          "type": "uint256"
        }
      ],
      "name": "BeerSupplied",
      "type": "event"
    },
    {
      "anonymous": false,
      "inputs": [
        {
          "indexed": false,
          "internalType": "address",
          "name": "account",
          "type": "address"
        }
      ],
      "name": "OwnerAdded",
      "type": "event"
    },
    {
      "anonymous": false,
      "inputs": [
        {
          "indexed": false,
          "internalType": "address",
          "name": "account",
          "type": "address"
        }
      ],
      "name": "OwnerRemoved",
      "type": "event"
    },
    {
      "inputs": [
        {
          "internalType": "address",
          "name": "",
          "type": "address"
        }
      ],
      "name": "orders",
      "outputs": [
        {
          "internalType": "uint256",
          "name": "",
          "type": "uint256"
        }
      ],
      "stateMutability": "view",
      "type": "function"
    },
    {
      "inputs": [
        {
          "internalType": "address",
          "name": "account",
          "type": "address"
        }
      ],
      "name": "isOwner",
      "outputs": [
        {
          "internalType": "bool",
          "name": "",
          "type": "bool"
        }
      ],
      "stateMutability": "view",
      "type": "function"
    },
    {
      "inputs": [
        {
          "internalType": "address",
          "name": "account",
          "type": "address"
        }
      ],
      "name": "addOwner",
      "outputs": [],
      "stateMutability": "nonpayable",
      "type": "function"
    },
    {
      "inputs": [],
      "name": "renounceOwner",
      "outputs": [],
      "stateMutability": "nonpayable",
      "type": "function"
    },
    {
      "inputs": [
        {
          "internalType": "address",
          "name": "account",
          "type": "address"
        }
      ],
      "name": "isBarkeeper",
      "outputs": [
        {
          "internalType": "bool",
          "name": "",
          "type": "bool"
        }
      ],
      "stateMutability": "view",
      "type": "function"
    },
    {
      "inputs": [
        {
          "internalType": "address",
          "name": "account",
          "type": "address"
        }
      ],
      "name": "addBarkeeper",
      "outputs": [],
      "stateMutability": "nonpayable",
      "type": "function"
    },
    {
      "inputs": [],
      "name": "renounceBarkeeper",
      "outputs": [],
      "stateMutability": "nonpayable",
      "type": "function"
    },
    {
      "inputs": [
        {
          "internalType": "address",
          "name": "_address",
          "type": "address"
        }
      ],
      "name": "setBeerTokenContractAddress",
      "outputs": [],
      "stateMutability": "nonpayable",
      "type": "function"
    },
    {
      "inputs": [],
      "name": "beerTokenContractAddress",
      "outputs": [
        {
          "internalType": "address",
          "name": "",
          "type": "address"
        }
      ],
      "stateMutability": "view",
      "type": "function"
    },
    {
      "inputs": [],
      "name": "openBar",
      "outputs": [],
      "stateMutability": "nonpayable",
      "type": "function"
    },
    {
      "inputs": [],
      "name": "closeBar",
      "outputs": [],
      "stateMutability": "nonpayable",
      "type": "function"
    },
    {
      "inputs": [],
      "name": "barIsOpen",
      "outputs": [
        {
          "internalType": "bool",
          "name": "",
          "type": "bool"
        }
      ],
      "stateMutability": "view",
      "type": "function"
    },
    {
      "inputs": [
        {
          "internalType": "address",
          "name": "customer",
          "type": "address"
        },
        {
          "internalType": "uint256",
          "name": "amount",
          "type": "uint256"
        }
      ],
      "name": "serveBeer",
      "outputs": [],
      "stateMutability": "nonpayable",
      "type": "function"
    },
    {
      "inputs": [
        {
          "internalType": "uint256",
          "name": "amount",
          "type": "uint256"
        }
      ],
      "name": "cancelOrder",
      "outputs": [],
      "stateMutability": "nonpayable",
      "type": "function"
    },
    {
      "inputs": [
        {
          "internalType": "address",
          "name": "_addr",
          "type": "address"
        }
      ],
      "name": "pendingBeer",
      "outputs": [
        {
          "internalType": "uint256",
          "name": "",
          "type": "uint256"
        }
      ],
      "stateMutability": "view",
      "type": "function"
    },
    {
      "inputs": [
        {
          "internalType": "uint256",
          "name": "_price",
          "type": "uint256"
        }
      ],
      "name": "setBeerPrice",
      "outputs": [],
      "stateMutability": "nonpayable",
      "type": "function"
    },
    {
      "inputs": [],
      "name": "getBeerPrice",
      "outputs": [
        {
          "internalType": "uint256",
          "name": "",
          "type": "uint256"
        }
      ],
      "stateMutability": "view",
      "type": "function"
    },
    {
      "inputs": [],
      "name": "buyToken",
      "outputs": [],
      "stateMutability": "payable",
      "type": "function"
    },
    {
      "inputs": [
        {
          "internalType": "address payable",
          "name": "_receiver",
          "type": "address"
        },
        {
          "internalType": "uint256",
          "name": "_amount",
          "type": "uint256"
        }
      ],
      "name": "payout",
      "outputs": [],
      "stateMutability": "nonpayable",
      "type": "function"
    },
    {
      "inputs": [
        {
          "internalType": "address",
          "name": "_from",
          "type": "address"
        },
        {
          "internalType": "uint256",
          "name": "_value",
          "type": "uint256"
        },
        {
          "internalType": "bytes",
          "name": "_data",
          "type": "bytes"
        }
      ],
      "name": "tokenFallback",
      "outputs": [],
      "stateMutability": "nonpayable",
      "type": "function"
    }
  ],
  "bytecode": "0x60806040523480156200001157600080fd5b506200002d3360006200004e60201b620011ba1790919060201c565b6000600460006101000a81548160ff02191690831515021790555062000195565b600073ffffffffffffffffffffffffffffffffffffffff168173ffffffffffffffffffffffffffffffffffffffff16036200008857600080fd5b6200009a82826200010360201b60201c565b15620000a557600080fd5b60018260000160008373ffffffffffffffffffffffffffffffffffffffff1673ffffffffffffffffffffffffffffffffffffffff16815260200190815260200160002060006101000a81548160ff0219169083151502179055505050565b60008073ffffffffffffffffffffffffffffffffffffffff168273ffffffffffffffffffffffffffffffffffffffff16036200013e57600080fd5b8260000160008373ffffffffffffffffffffffffffffffffffffffff1673ffffffffffffffffffffffffffffffffffffffff16815260200190815260200160002060009054906101000a900460ff16905092915050565b611c9180620001a56000396000f3fe60806040526004361061011f5760003560e01c80637065cb48116100a0578063c2893a9511610064578063c2893a9514610376578063cb1560e51461039f578063cf45d7d5146103b6578063da9017dc146103f3578063f40e84711461040a5761011f565b80637065cb48146102b457806379320fe2146102dd5780638124020e14610306578063a482171914610343578063c0ee0b8a1461034d5761011f565b806328ef8946116100e757806328ef8946146101e35780632b585821146101fa5780632f54bf6e146102255780634c2e589d14610262578063514fcac71461028b5761011f565b806301b0533614610124578063117de2fd1461014d5780631c0e7b8a1461017657806328c23a45146101a157806328ce8031146101b8575b600080fd5b34801561013057600080fd5b5061014b60048036038101906101469190611408565b610447565b005b34801561015957600080fd5b50610174600480360381019061016f91906114a9565b6104e8565b005b34801561018257600080fd5b5061018b61059f565b60405161019891906114f8565b60405180910390f35b3480156101ad57600080fd5b506101b66105c9565b005b3480156101c457600080fd5b506101cd610669565b6040516101da9190611522565b60405180910390f35b3480156101ef57600080fd5b506101f8610673565b005b34801561020657600080fd5b5061020f61070f565b60405161021c9190611558565b60405180910390f35b34801561023157600080fd5b5061024c60048036038101906102479190611408565b610726565b6040516102599190611558565b60405180910390f35b34801561026e57600080fd5b5061028960048036038101906102849190611573565b610784565b005b34801561029757600080fd5b506102b260048036038101906102ad9190611573565b610831565b005b3480156102c057600080fd5b506102db60048036038101906102d69190611408565b610979565b005b3480156102e957600080fd5b5061030460048036038101906102ff9190611408565b610a1a565b005b34801561031257600080fd5b5061032d60048036038101906103289190611408565b610ab1565b60405161033a9190611522565b60405180910390f35b61034b610afa565b005b34801561035957600080fd5b50610374600480360381019061036f9190611605565b610c0d565b005b34801561038257600080fd5b5061039d60048036038101906103989190611679565b610e7f565b005b3480156103ab57600080fd5b506103b4611008565b005b3480156103c257600080fd5b506103dd60048036038101906103d89190611408565b6110a8565b6040516103ea9190611558565b60405180910390f35b3480156103ff57600080fd5b50610408611106565b005b34801561041657600080fd5b50610431600480360381019061042c9190611408565b6111a2565b60405161043e9190611522565b60405180910390f35b61045b32600061126590919063ffffffff16565b61049a576040517f08c379a000000000000000000000000000000000000000000000000000000000815260040161049190611716565b60405180910390fd5b6104ae8160016111ba90919063ffffffff16565b7fddaea0f56ddd451545a029e309c9900e717dd4fc8fbd099d1fa0f6e8622d1eea816040516104dd91906114f8565b60405180910390a150565b6104fc32600061126590919063ffffffff16565b61053b576040517f08c379a000000000000000000000000000000000000000000000000000000000815260040161053290611716565b60405180910390fd5b600081476105499190611765565b101561055457600080fd5b8173ffffffffffffffffffffffffffffffffffffffff166108fc829081150290604051600060405180830381858888f1935050505015801561059a573d6000803e3d6000fd5b505050565b6000600260009054906101000a900473ffffffffffffffffffffffffffffffffffffffff16905090565b6105dd32600061126590919063ffffffff16565b61061c576040517f08c379a000000000000000000000000000000000000000000000000000000000815260040161061390611716565b60405180910390fd5b6106303260006112f690919063ffffffff16565b7f58619076adf5bb0943d100ef88d52d7c3fd691b19d3a9071b555b651fbf418da3260405161065f91906114f8565b60405180910390a1565b6000600354905090565b61068732600161126590919063ffffffff16565b6106c6576040517f08c379a00000000000000000000000000000000000000000000000000000000081526004016106bd906117e5565b60405180910390fd5b6000600460006101000a81548160ff0219169083151502179055507fe311bc1ca37e125782c35af946e36aaca07c4510eeffada2ba114c0e9774fbb460405160405180910390a1565b6000600460009054906101000a900460ff16905090565b600061073c82600061126590919063ffffffff16565b61077b576040517f08c379a000000000000000000000000000000000000000000000000000000000815260040161077290611716565b60405180910390fd5b60019050919050565b61079832600061126590919063ffffffff16565b6107d7576040517f08c379a00000000000000000000000000000000000000000000000000000000081526004016107ce90611716565b60405180910390fd5b600460009054906101000a900460ff1615610827576040517f08c379a000000000000000000000000000000000000000000000000000000000815260040161081e90611851565b60405180910390fd5b8060038190555050565b80600560003373ffffffffffffffffffffffffffffffffffffffff1673ffffffffffffffffffffffffffffffffffffffff16815260200190815260200160002060008282546108809190611765565b92505081905550600260009054906101000a900473ffffffffffffffffffffffffffffffffffffffff1673ffffffffffffffffffffffffffffffffffffffff1663be45fd6233836040518363ffffffff1660e01b81526004016108e49291906118ae565b6020604051808303816000875af1158015610903573d6000803e3d6000fd5b505050506040513d601f19601f820116820180604052508101906109279190611916565b503373ffffffffffffffffffffffffffffffffffffffff167f9e9d0e3d8e80951b03f40584d81f0396ec2899fe7267a87e264db8309b17ac608260405161096e9190611522565b60405180910390a250565b61098d32600061126590919063ffffffff16565b6109cc576040517f08c379a00000000000000000000000000000000000000000000000000000000081526004016109c390611716565b60405180910390fd5b6109e08160006111ba90919063ffffffff16565b7f994a936646fe87ffe4f1e469d3d6aa417d6b855598397f323de5b449f765f0c381604051610a0f91906114f8565b60405180910390a150565b610a2e32600061126590919063ffffffff16565b610a6d576040517f08c379a0000000000000000000000000000000000000000000000000000000008152600401610a6490611716565b60405180910390fd5b80600260006101000a81548173ffffffffffffffffffffffffffffffffffffffff021916908373ffffffffffffffffffffffffffffffffffffffff16021790555050565b6000600560008373ffffffffffffffffffffffffffffffffffffffff1673ffffffffffffffffffffffffffffffffffffffff168152602001908152602001600020549050919050565b600060035403610b3f576040517f08c379a0000000000000000000000000000000000000000000000000000000008152600401610b369061198f565b60405180910390fd5b600060035434610b4f91906119de565b9050600260009054906101000a900473ffffffffffffffffffffffffffffffffffffffff1673ffffffffffffffffffffffffffffffffffffffff1663a9059cbb336003548434610b9f9190611765565b610ba99190611a0f565b6040518363ffffffff1660e01b8152600401610bc6929190611a40565b6020604051808303816000875af1158015610be5573d6000803e3d6000fd5b505050506040513d601f19601f82011682018060405250810190610c099190611916565b5050565b600260009054906101000a900473ffffffffffffffffffffffffffffffffffffffff1673ffffffffffffffffffffffffffffffffffffffff163373ffffffffffffffffffffffffffffffffffffffff1614610c9d576040517f08c379a0000000000000000000000000000000000000000000000000000000008152600401610c9490611ab5565b60405180910390fd5b604051602001610cac90611b2c565b604051602081830303815290604052805190602001208282604051610cd2929190611b80565b604051809103902003610d8557610cf384600061126590919063ffffffff16565b610d32576040517f08c379a0000000000000000000000000000000000000000000000000000000008152600401610d2990611716565b60405180910390fd5b8373ffffffffffffffffffffffffffffffffffffffff167f474cef3e0be75022a5c778de128b4eeb1bd3b6408c87c2439689cb58ad71615d84604051610d789190611522565b60405180910390a2610e79565b600460009054906101000a900460ff16610dd4576040517f08c379a0000000000000000000000000000000000000000000000000000000008152600401610dcb90611be5565b60405180910390fd5b82600560008673ffffffffffffffffffffffffffffffffffffffff1673ffffffffffffffffffffffffffffffffffffffff1681526020019081526020016000206000828254610e239190611c05565b925050819055508373ffffffffffffffffffffffffffffffffffffffff167f53b7604ee49f0e8a26e6ae4f75c962c8c467157665b09391be96ddbfcb2b74df84604051610e709190611522565b60405180910390a25b50505050565b600460009054906101000a900460ff16610ece576040517f08c379a0000000000000000000000000000000000000000000000000000000008152600401610ec590611be5565b60405180910390fd5b610ee232600161126590919063ffffffff16565b610f21576040517f08c379a0000000000000000000000000000000000000000000000000000000008152600401610f18906117e5565b60405180910390fd5b80600560008473ffffffffffffffffffffffffffffffffffffffff1673ffffffffffffffffffffffffffffffffffffffff1681526020019081526020016000206000828254610f709190611765565b92505081905550600260009054906101000a900473ffffffffffffffffffffffffffffffffffffffff1673ffffffffffffffffffffffffffffffffffffffff166342966c68826040518263ffffffff1660e01b8152600401610fd29190611522565b600060405180830381600087803b158015610fec57600080fd5b505af1158015611000573d6000803e3d6000fd5b505050505050565b61101c32600161126590919063ffffffff16565b61105b576040517f08c379a0000000000000000000000000000000000000000000000000000000008152600401611052906117e5565b60405180910390fd5b61106f3260016112f690919063ffffffff16565b7f24d55ebffd1d5ed6113bda634d47a96d6d0a042d564143067dc2f3c4773464463260405161109e91906114f8565b60405180910390a1565b60006110be82600161126590919063ffffffff16565b6110fd576040517f08c379a00000000000000000000000000000000000000000000000000000000081526004016110f4906117e5565b60405180910390fd5b60019050919050565b61111a32600161126590919063ffffffff16565b611159576040517f08c379a0000000000000000000000000000000000000000000000000000000008152600401611150906117e5565b60405180910390fd5b6001600460006101000a81548160ff0219169083151502179055507feacbe933e9d08a23f80dc21826bcef42d89f47da76688dc18a99d7fd43292bd760405160405180910390a1565b60056020528060005260406000206000915090505481565b600073ffffffffffffffffffffffffffffffffffffffff168173ffffffffffffffffffffffffffffffffffffffff16036111f357600080fd5b6111fd8282611265565b1561120757600080fd5b60018260000160008373ffffffffffffffffffffffffffffffffffffffff1673ffffffffffffffffffffffffffffffffffffffff16815260200190815260200160002060006101000a81548160ff0219169083151502179055505050565b60008073ffffffffffffffffffffffffffffffffffffffff168273ffffffffffffffffffffffffffffffffffffffff160361129f57600080fd5b8260000160008373ffffffffffffffffffffffffffffffffffffffff1673ffffffffffffffffffffffffffffffffffffffff16815260200190815260200160002060009054906101000a900460ff16905092915050565b600073ffffffffffffffffffffffffffffffffffffffff168173ffffffffffffffffffffffffffffffffffffffff160361132f57600080fd5b6113398282611265565b61134257600080fd5b60008260000160008373ffffffffffffffffffffffffffffffffffffffff1673ffffffffffffffffffffffffffffffffffffffff16815260200190815260200160002060006101000a81548160ff0219169083151502179055505050565b600080fd5b600080fd5b600073ffffffffffffffffffffffffffffffffffffffff82169050919050565b60006113d5826113aa565b9050919050565b6113e5816113ca565b81146113f057600080fd5b50565b600081359050611402816113dc565b92915050565b60006020828403121561141e5761141d6113a0565b5b600061142c848285016113f3565b91505092915050565b6000611440826113aa565b9050919050565b61145081611435565b811461145b57600080fd5b50565b60008135905061146d81611447565b92915050565b6000819050919050565b61148681611473565b811461149157600080fd5b50565b6000813590506114a38161147d565b92915050565b600080604083850312156114c0576114bf6113a0565b5b60006114ce8582860161145e565b92505060206114df85828601611494565b9150509250929050565b6114f2816113ca565b82525050565b600060208201905061150d60008301846114e9565b92915050565b61151c81611473565b82525050565b60006020820190506115376000830184611513565b92915050565b60008115159050919050565b6115528161153d565b82525050565b600060208201905061156d6000830184611549565b92915050565b600060208284031215611589576115886113a0565b5b600061159784828501611494565b91505092915050565b600080fd5b600080fd5b600080fd5b60008083601f8401126115c5576115c46115a0565b5b8235905067ffffffffffffffff8111156115e2576115e16115a5565b5b6020830191508360018202830111156115fe576115fd6115aa565b5b9250929050565b6000806000806060858703121561161f5761161e6113a0565b5b600061162d878288016113f3565b945050602061163e87828801611494565b935050604085013567ffffffffffffffff81111561165f5761165e6113a5565b5b61166b878288016115af565b925092505092959194509250565b600080604083850312156116905761168f6113a0565b5b600061169e858286016113f3565b92505060206116af85828601611494565b9150509250929050565b600082825260208201905092915050565b7f49535f4e4f545f414e5f4f574e45520000000000000000000000000000000000600082015250565b6000611700600f836116b9565b915061170b826116ca565b602082019050919050565b6000602082019050818103600083015261172f816116f3565b9050919050565b7f4e487b7100000000000000000000000000000000000000000000000000000000600052601160045260246000fd5b600061177082611473565b915061177b83611473565b92508282101561178e5761178d611736565b5b828203905092915050565b7f49535f4e4f545f415f4241524b45455045520000000000000000000000000000600082015250565b60006117cf6012836116b9565b91506117da82611799565b602082019050919050565b600060208201905081810360008301526117fe816117c2565b9050919050565b7f4241525f49535f4f50454e000000000000000000000000000000000000000000600082015250565b600061183b600b836116b9565b915061184682611805565b602082019050919050565b6000602082019050818103600083015261186a8161182e565b9050919050565b600082825260208201905092915050565b60008082015250565b6000611898600483611871565b91506118a382611882565b602082019050919050565b60006060820190506118c360008301856114e9565b6118d06020830184611513565b81810360408301526118e18161188b565b90509392505050565b6118f38161153d565b81146118fe57600080fd5b50565b600081519050611910816118ea565b92915050565b60006020828403121561192c5761192b6113a0565b5b600061193a84828501611901565b91505092915050565b7f4e4f5f424545525f505249434500000000000000000000000000000000000000600082015250565b6000611979600d836116b9565b915061198482611943565b602082019050919050565b600060208201905081810360008301526119a88161196c565b9050919050565b7f4e487b7100000000000000000000000000000000000000000000000000000000600052601260045260246000fd5b60006119e982611473565b91506119f483611473565b925082611a0457611a036119af565b5b828206905092915050565b6000611a1a82611473565b9150611a2583611473565b925082611a3557611a346119af565b5b828204905092915050565b6000604082019050611a5560008301856114e9565b611a626020830184611513565b9392505050565b7f57524f4e475f544f4b454e5f5459504500000000000000000000000000000000600082015250565b6000611a9f6010836116b9565b9150611aaa82611a69565b602082019050919050565b60006020820190508181036000830152611ace81611a92565b9050919050565b600081905092915050565b7f737570706c790000000000000000000000000000000000000000000000000000600082015250565b6000611b16600683611ad5565b9150611b2182611ae0565b600682019050919050565b6000611b3782611b09565b9150819050919050565b600081905092915050565b82818337600083830152505050565b6000611b678385611b41565b9350611b74838584611b4c565b82840190509392505050565b6000611b8d828486611b5b565b91508190509392505050565b7f4241525f49535f4e4f545f4f50454e0000000000000000000000000000000000600082015250565b6000611bcf600f836116b9565b9150611bda82611b99565b602082019050919050565b60006020820190508181036000830152611bfe81611bc2565b9050919050565b6000611c1082611473565b9150611c1b83611473565b9250827fffffffffffffffffffffffffffffffffffffffffffffffffffffffffffffffff03821115611c5057611c4f611736565b5b82820190509291505056fea264697066735822122094ddeb5f7f30dfd7c480a775db2d9aaa5d675c16bb759526adc8ed8c712ce18d64736f6c634300080d0033",
  "immutableReferences": {},
  "source": "// SPDX-License-Identifier: MIT\r\npragma solidity ^0.8.0;\r\n\r\nimport \"./Roles.sol\";\r\nimport \"./IBeerBar.sol\";\r\nimport \"./BeerToken.sol\";\r\n\r\ncontract BeerBar is IBeerBar, IERC223Recipient {\r\n    using Roles for Roles.Role;\r\n\r\n    Roles.Role private owners;\r\n    Roles.Role private barkeepers;\r\n    BeerToken internal beerTokenContract;\r\n    uint256 internal beerPrice;\r\n    bool internal isOpen;\r\n    mapping(address => uint256) public orders;\r\n\r\n    constructor () {\r\n        owners.add(msg.sender);\r\n        isOpen = false;\r\n    }\r\n\r\n    modifier isBarOwner(){\r\n        require(owners.has(tx.origin), \"IS_NOT_AN_OWNER\");\r\n        _;\r\n    }\r\n\r\n    modifier isBarKeeperModifier(){\r\n        require(barkeepers.has(tx.origin), \"IS_NOT_A_BARKEEPER\");\r\n        _;\r\n    }\r\n\r\n    modifier isBarOpen(){\r\n        require(isOpen, \"BAR_IS_NOT_OPEN\");\r\n        _;\r\n    }\r\n\r\n    modifier isBarClosed(){\r\n        require(!isOpen, \"BAR_IS_OPEN\");\r\n        _;\r\n    }\r\n\r\n    function isOwner(address account) external view returns (bool) {\r\n        require(owners.has(account), \"IS_NOT_AN_OWNER\");\r\n        return true;\r\n    }\r\n\r\n    function addOwner(address account) external isBarOwner {\r\n        owners.add(account);\r\n        emit OwnerAdded(account);\r\n    }\r\n\r\n    function renounceOwner() external isBarOwner {\r\n        owners.remove(tx.origin);\r\n        emit OwnerRemoved(tx.origin);\r\n    }\r\n\r\n    function isBarkeeper(address account) external view returns (bool) {\r\n        require(barkeepers.has(account), \"IS_NOT_A_BARKEEPER\");\r\n        return true;\r\n    }\r\n\r\n    function addBarkeeper(address account) external isBarOwner {\r\n        barkeepers.add(account);\r\n        emit BarkeeperAdded(account);\r\n    }\r\n\r\n    function renounceBarkeeper() external isBarKeeperModifier {\r\n        barkeepers.remove(tx.origin);\r\n        emit BarkeeperRemoved(tx.origin);\r\n    }\r\n\r\n    function setBeerTokenContractAddress(address _address) external isBarOwner {\r\n        beerTokenContract = BeerToken(_address);\r\n    }\r\n\r\n    function beerTokenContractAddress() external view returns(address) {\r\n        return address(beerTokenContract);\r\n    }\r\n\r\n    function openBar() external isBarKeeperModifier {\r\n        isOpen = true;\r\n        emit BarOpened();\r\n    }\r\n\r\n    function closeBar() virtual external isBarKeeperModifier {\r\n        isOpen = false;\r\n        emit BarClosed();\r\n    }\r\n\r\n    function barIsOpen() external view returns (bool) {\r\n        return isOpen;\r\n    }\r\n\r\n    function serveBeer(address customer, uint amount) external isBarOpen isBarKeeperModifier {\r\n        orders[customer] -= amount;\r\n        beerTokenContract.burn(amount);\r\n    }\r\n\r\n    function cancelOrder(uint amount) external{\r\n        orders[msg.sender] -= amount;\r\n        beerTokenContract.transfer(msg.sender, amount, hex\"00000000\");\r\n        emit BeerCanceled(msg.sender, amount);\r\n    }\r\n\r\n    function pendingBeer(address _addr) external view returns (uint256){\r\n        return orders[_addr];\r\n    }\r\n\r\n    function setBeerPrice(uint256 _price) external isBarOwner isBarClosed {\r\n        beerPrice = _price;\r\n    }\r\n\r\n    function getBeerPrice() external view returns(uint256) {\r\n        return beerPrice;\r\n    }\r\n\r\n    function buyToken() external payable{\r\n        require(beerPrice != 0, \"NO_BEER_PRICE\");\r\n        uint tip = msg.value%beerPrice;\r\n        beerTokenContract.transfer(msg.sender, (msg.value-tip)/beerPrice);\r\n    }\r\n\r\n    function payout(address payable _receiver, uint256 _amount) external isBarOwner {\r\n        require(address(this).balance-_amount >= 0);\r\n        _receiver.transfer(_amount);\r\n    }\r\n\r\n    function tokenFallback(address _from, uint256 _value, bytes calldata _data) external {\r\n        require(msg.sender == address(beerTokenContract), \"WRONG_TOKEN_TYPE\");\r\n        if(keccak256(_data) == keccak256(abi.encodePacked(\"supply\"))){\r\n            require(owners.has(_from), \"IS_NOT_AN_OWNER\");\r\n            emit BeerSupplied(_from, _value);\r\n        }else{\r\n            require(isOpen, \"BAR_IS_NOT_OPEN\");\r\n            orders[_from] += _value;\r\n            emit BeerOrdered(_from, _value);\r\n        }\r\n    }\r\n\r\n}\r\n",
  "sourcePath": "C:\\Users\\Jakob\\Documents\\Master\\1.Semester\\sc\\BeerBar\\contracts\\BeerBar.sol",
  "compiler": {
    "name": "solc",
    "version": "0.8.13+commit.abaa5c0e.Emscripten.clang"
  },
  "schemaVersion": "3.4.7",
  "updatedAt": "2022-04-19T20:03:17.330Z",
  "devdoc": {
    "kind": "dev",
    "methods": {},
    "version": 1
  },
  "userdoc": {
    "kind": "user",
    "methods": {},
    "version": 1
  }
}