{
  "contractName": "SongVotingBar",
  "abi": [
    {
      "inputs": [],
      "stateMutability": "nonpayable",
      "type": "constructor"
    },
    {
      "anonymous": false,
      "inputs": [],
      "name": "BarClosed",
      "type": "event"
    },
    {
      "anonymous": false,
      "inputs": [],
      "name": "BarOpened",
      "type": "event"
    },
    {
      "anonymous": false,
      "inputs": [
        {
          "indexed": false,
          "internalType": "address",
          "name": "account",
          "type": "address"
        }
      ],
      "name": "BarkeeperAdded",
      "type": "event"
    },
    {
      "anonymous": false,
      "inputs": [
        {
          "indexed": false,
          "internalType": "address",
          "name": "account",
          "type": "address"
        }
      ],
      "name": "BarkeeperRemoved",
      "type": "event"
    },
    {
      "anonymous": false,
      "inputs": [
        {
          "indexed": true,
          "internalType": "address",
          "name": "from",
          "type": "address"
        },
        {
          "indexed": false,
          "internalType": "uint256",
          "name": "amount",
          "type": "uint256"
        }
      ],
      "name": "BeerCanceled",
      "type": "event"
    },
    {
      "anonymous": false,
      "inputs": [
        {
          "indexed": true,
          "internalType": "address",
          "name": "from",
          "type": "address"
        },
        {
          "indexed": false,
          "internalType": "uint256",
          "name": "amount",
          "type": "uint256"
        }
      ],
      "name": "BeerOrdered",
      "type": "event"
    },
    {
      "anonymous": false,
      "inputs": [
        {
          "indexed": true,
          "internalType": "address",
          "name": "from",
          "type": "address"
        },
        {
          "indexed": false,
          "internalType": "uint256",
          "name": "amount",
          "type": "uint256"
        }
      ],
      "name": "BeerSupplied",
      "type": "event"
    },
    {
      "anonymous": false,
      "inputs": [
        {
          "indexed": false,
          "internalType": "address",
          "name": "account",
          "type": "address"
        }
      ],
      "name": "DJAdded",
      "type": "event"
    },
    {
      "anonymous": false,
      "inputs": [
        {
          "indexed": false,
          "internalType": "address",
          "name": "account",
          "type": "address"
        }
      ],
      "name": "DJRemoved",
      "type": "event"
    },
    {
      "anonymous": false,
      "inputs": [
        {
          "indexed": false,
          "internalType": "address",
          "name": "account",
          "type": "address"
        }
      ],
      "name": "OwnerAdded",
      "type": "event"
    },
    {
      "anonymous": false,
      "inputs": [
        {
          "indexed": false,
          "internalType": "address",
          "name": "account",
          "type": "address"
        }
      ],
      "name": "OwnerRemoved",
      "type": "event"
    },
    {
      "anonymous": false,
      "inputs": [],
      "name": "VotingEnded",
      "type": "event"
    },
    {
      "anonymous": false,
      "inputs": [],
      "name": "VotingStarted",
      "type": "event"
    },
    {
      "inputs": [
        {
          "internalType": "address",
          "name": "account",
          "type": "address"
        }
      ],
      "name": "addBarkeeper",
      "outputs": [],
      "stateMutability": "nonpayable",
      "type": "function"
    },
    {
      "inputs": [
        {
          "internalType": "address",
          "name": "account",
          "type": "address"
        }
      ],
      "name": "addOwner",
      "outputs": [],
      "stateMutability": "nonpayable",
      "type": "function"
    },
    {
      "inputs": [],
      "name": "barIsOpen",
      "outputs": [
        {
          "internalType": "bool",
          "name": "",
          "type": "bool"
        }
      ],
      "stateMutability": "view",
      "type": "function",
      "constant": true
    },
    {
      "inputs": [],
      "name": "beerTokenContractAddress",
      "outputs": [
        {
          "internalType": "address",
          "name": "",
          "type": "address"
        }
      ],
      "stateMutability": "view",
      "type": "function",
      "constant": true
    },
    {
      "inputs": [],
      "name": "buyToken",
      "outputs": [],
      "stateMutability": "payable",
      "type": "function",
      "payable": true
    },
    {
      "inputs": [
        {
          "internalType": "uint256",
          "name": "amount",
          "type": "uint256"
        }
      ],
      "name": "cancelOrder",
      "outputs": [],
      "stateMutability": "nonpayable",
      "type": "function"
    },
    {
      "inputs": [],
      "name": "getBeerPrice",
      "outputs": [
        {
          "internalType": "uint256",
          "name": "",
          "type": "uint256"
        }
      ],
      "stateMutability": "view",
      "type": "function",
      "constant": true
    },
    {
      "inputs": [
        {
          "internalType": "address",
          "name": "account",
          "type": "address"
        }
      ],
      "name": "isBarkeeper",
      "outputs": [
        {
          "internalType": "bool",
          "name": "",
          "type": "bool"
        }
      ],
      "stateMutability": "view",
      "type": "function",
      "constant": true
    },
    {
      "inputs": [
        {
          "internalType": "address",
          "name": "account",
          "type": "address"
        }
      ],
      "name": "isOwner",
      "outputs": [
        {
          "internalType": "bool",
          "name": "",
          "type": "bool"
        }
      ],
      "stateMutability": "view",
      "type": "function",
      "constant": true
    },
    {
      "inputs": [],
      "name": "openBar",
      "outputs": [],
      "stateMutability": "nonpayable",
      "type": "function"
    },
    {
      "inputs": [
        {
          "internalType": "address",
          "name": "",
          "type": "address"
        }
      ],
      "name": "orders",
      "outputs": [
        {
          "internalType": "uint256",
          "name": "",
          "type": "uint256"
        }
      ],
      "stateMutability": "view",
      "type": "function",
      "constant": true
    },
    {
      "inputs": [
        {
          "internalType": "address payable",
          "name": "_receiver",
          "type": "address"
        },
        {
          "internalType": "uint256",
          "name": "_amount",
          "type": "uint256"
        }
      ],
      "name": "payout",
      "outputs": [],
      "stateMutability": "nonpayable",
      "type": "function"
    },
    {
      "inputs": [
        {
          "internalType": "address",
          "name": "_addr",
          "type": "address"
        }
      ],
      "name": "pendingBeer",
      "outputs": [
        {
          "internalType": "uint256",
          "name": "",
          "type": "uint256"
        }
      ],
      "stateMutability": "view",
      "type": "function",
      "constant": true
    },
    {
      "inputs": [],
      "name": "renounceBarkeeper",
      "outputs": [],
      "stateMutability": "nonpayable",
      "type": "function"
    },
    {
      "inputs": [],
      "name": "renounceOwner",
      "outputs": [],
      "stateMutability": "nonpayable",
      "type": "function"
    },
    {
      "inputs": [
        {
          "internalType": "address",
          "name": "customer",
          "type": "address"
        },
        {
          "internalType": "uint256",
          "name": "amount",
          "type": "uint256"
        }
      ],
      "name": "serveBeer",
      "outputs": [],
      "stateMutability": "nonpayable",
      "type": "function"
    },
    {
      "inputs": [
        {
          "internalType": "uint256",
          "name": "_price",
          "type": "uint256"
        }
      ],
      "name": "setBeerPrice",
      "outputs": [],
      "stateMutability": "nonpayable",
      "type": "function"
    },
    {
      "inputs": [
        {
          "internalType": "address",
          "name": "_address",
          "type": "address"
        }
      ],
      "name": "setBeerTokenContractAddress",
      "outputs": [],
      "stateMutability": "nonpayable",
      "type": "function"
    },
    {
      "inputs": [
        {
          "internalType": "address",
          "name": "_from",
          "type": "address"
        },
        {
          "internalType": "uint256",
          "name": "_value",
          "type": "uint256"
        },
        {
          "internalType": "bytes",
          "name": "_data",
          "type": "bytes"
        }
      ],
      "name": "tokenFallback",
      "outputs": [],
      "stateMutability": "nonpayable",
      "type": "function"
    },
    {
      "inputs": [
        {
          "internalType": "address",
          "name": "account",
          "type": "address"
        }
      ],
      "name": "isDJ",
      "outputs": [
        {
          "internalType": "bool",
          "name": "",
          "type": "bool"
        }
      ],
      "stateMutability": "view",
      "type": "function",
      "constant": true
    },
    {
      "inputs": [
        {
          "internalType": "address",
          "name": "account",
          "type": "address"
        }
      ],
      "name": "addDJ",
      "outputs": [],
      "stateMutability": "nonpayable",
      "type": "function"
    },
    {
      "inputs": [],
      "name": "renounceDJ",
      "outputs": [],
      "stateMutability": "nonpayable",
      "type": "function"
    },
    {
      "inputs": [],
      "name": "startVoting",
      "outputs": [],
      "stateMutability": "nonpayable",
      "type": "function"
    },
    {
      "inputs": [],
      "name": "endVoting",
      "outputs": [],
      "stateMutability": "nonpayable",
      "type": "function"
    },
    {
      "inputs": [],
      "name": "votingIsActive",
      "outputs": [
        {
          "internalType": "bool",
          "name": "",
          "type": "bool"
        }
      ],
      "stateMutability": "view",
      "type": "function",
      "constant": true
    },
    {
      "inputs": [],
      "name": "closeBar",
      "outputs": [],
      "stateMutability": "nonpayable",
      "type": "function"
    },
    {
      "inputs": [],
      "name": "playNextSong",
      "outputs": [
        {
          "internalType": "string",
          "name": "",
          "type": "string"
        }
      ],
      "stateMutability": "nonpayable",
      "type": "function"
    },
    {
      "inputs": [
        {
          "internalType": "string",
          "name": "song",
          "type": "string"
        }
      ],
      "name": "voteSong",
      "outputs": [],
      "stateMutability": "payable",
      "type": "function",
      "payable": true
    }
  ],
  "bytecode": "0x60806040523480156200001157600080fd5b506200002d336000620000b360201b62001c931790919060201c565b6000600460006101000a81548160ff0219169083151502179055506000600760006101000a81548160ff021916908315150217905550600880600181540180825580915050600190039060005260206000200160006040518060200160405280600081525090919091509080519060200190620000ac929190620001fa565b506200030e565b600073ffffffffffffffffffffffffffffffffffffffff168173ffffffffffffffffffffffffffffffffffffffff1603620000ed57600080fd5b620000ff82826200016860201b60201c565b156200010a57600080fd5b60018260000160008373ffffffffffffffffffffffffffffffffffffffff1673ffffffffffffffffffffffffffffffffffffffff16815260200190815260200160002060006101000a81548160ff0219169083151502179055505050565b60008073ffffffffffffffffffffffffffffffffffffffff168273ffffffffffffffffffffffffffffffffffffffff1603620001a357600080fd5b8260000160008373ffffffffffffffffffffffffffffffffffffffff1673ffffffffffffffffffffffffffffffffffffffff16815260200190815260200160002060009054906101000a900460ff16905092915050565b8280546200020890620002d9565b90600052602060002090601f0160209004810192826200022c576000855562000278565b82601f106200024757805160ff191683800117855562000278565b8280016001018555821562000278579182015b82811115620002775782518255916020019190600101906200025a565b5b5090506200028791906200028b565b5090565b5b80821115620002a65760008160009055506001016200028c565b5090565b7f4e487b7100000000000000000000000000000000000000000000000000000000600052602260045260246000fd5b60006002820490506001821680620002f257607f821691505b602082108103620003085762000307620002aa565b5b50919050565b612d39806200031e6000396000f3fe6080604052600436106101b75760003560e01c806379320fe2116100ec578063c26bc73c1161008a578063cb1560e511610064578063cb1560e514610554578063cf45d7d51461056b578063da9017dc146105a8578063f40e8471146105bf576101b7565b8063c26bc73c146104e9578063c2893a9514610514578063c3403ddf1461053d576101b7565b80639f07041b116100c65780639f07041b14610474578063a48217191461049f578063b8ca2289146104a9578063c0ee0b8a146104c0576101b7565b806379320fe2146103f25780638124020e1461041b57806382e516ec14610458576101b7565b806328ef8946116101595780634c2e589d116101335780634c2e589d1461033a578063514fcac7146103635780637065cb481461038c57806374c6f719146103b5576101b7565b806328ef8946146102bb5780632b585821146102d25780632f54bf6e146102fd576101b7565b80631c0e7b8a116101955780631c0e7b8a146102375780631ec6b60a1461026257806328c23a451461027957806328ce803114610290576101b7565b806301b05336146101bc5780630993b1c0146101e5578063117de2fd1461020e575b600080fd5b3480156101c857600080fd5b506101e360048036038101906101de9190611f8e565b6105fc565b005b3480156101f157600080fd5b5061020c60048036038101906102079190611f8e565b61069d565b005b34801561021a57600080fd5b506102356004803603810190610230919061202f565b61073e565b005b34801561024357600080fd5b5061024c6107f5565b604051610259919061207e565b60405180910390f35b34801561026e57600080fd5b5061027761081f565b005b34801561028557600080fd5b5061028e610973565b005b34801561029c57600080fd5b506102a5610a13565b6040516102b291906120a8565b60405180910390f35b3480156102c757600080fd5b506102d0610a1d565b005b3480156102de57600080fd5b506102e7610b00565b6040516102f491906120de565b60405180910390f35b34801561030957600080fd5b50610324600480360381019061031f9190611f8e565b610b17565b60405161033191906120de565b60405180910390f35b34801561034657600080fd5b50610361600480360381019061035c91906120f9565b610b75565b005b34801561036f57600080fd5b5061038a600480360381019061038591906120f9565b610c22565b005b34801561039857600080fd5b506103b360048036038101906103ae9190611f8e565b610d6a565b005b3480156103c157600080fd5b506103dc60048036038101906103d79190611f8e565b610e0b565b6040516103e991906120de565b60405180910390f35b3480156103fe57600080fd5b5061041960048036038101906104149190611f8e565b610e69565b005b34801561042757600080fd5b50610442600480360381019061043d9190611f8e565b610f00565b60405161044f91906120a8565b60405180910390f35b610472600480360381019061046d919061226c565b610f49565b005b34801561048057600080fd5b506104896111a2565b60405161049691906120de565b60405180910390f35b6104a76111b9565b005b3480156104b557600080fd5b506104be6112cc565b005b3480156104cc57600080fd5b506104e760048036038101906104e29190612315565b61136c565b005b3480156104f557600080fd5b506104fe6115de565b60405161050b9190612411565b60405180910390f35b34801561052057600080fd5b5061053b60048036038101906105369190612433565b61186d565b005b34801561054957600080fd5b506105526119f6565b005b34801561056057600080fd5b50610569611ae1565b005b34801561057757600080fd5b50610592600480360381019061058d9190611f8e565b611b81565b60405161059f91906120de565b60405180910390f35b3480156105b457600080fd5b506105bd611bdf565b005b3480156105cb57600080fd5b506105e660048036038101906105e19190611f8e565b611c7b565b6040516105f391906120a8565b60405180910390f35b610610326000611d3e90919063ffffffff16565b61064f576040517f08c379a0000000000000000000000000000000000000000000000000000000008152600401610646906124bf565b60405180910390fd5b610663816001611c9390919063ffffffff16565b7fddaea0f56ddd451545a029e309c9900e717dd4fc8fbd099d1fa0f6e8622d1eea81604051610692919061207e565b60405180910390a150565b6106b1326000611d3e90919063ffffffff16565b6106f0576040517f08c379a00000000000000000000000000000000000000000000000000000000081526004016106e7906124bf565b60405180910390fd5b610704816006611c9390919063ffffffff16565b7f202f88e621a5369ca9215aa0d6366766aa92731a0e77841489a7ae3161b2198e81604051610733919061207e565b60405180910390a150565b610752326000611d3e90919063ffffffff16565b610791576040517f08c379a0000000000000000000000000000000000000000000000000000000008152600401610788906124bf565b60405180910390fd5b6000814761079f919061250e565b10156107aa57600080fd5b8173ffffffffffffffffffffffffffffffffffffffff166108fc829081150290604051600060405180830381858888f193505050501580156107f0573d6000803e3d6000fd5b505050565b6000600260009054906101000a900473ffffffffffffffffffffffffffffffffffffffff16905090565b610833326006611d3e90919063ffffffff16565b610872576040517f08c379a00000000000000000000000000000000000000000000000000000000081526004016108699061258e565b60405180910390fd5b600460009054906101000a900460ff166108c1576040517f08c379a00000000000000000000000000000000000000000000000000000000081526004016108b8906125fa565b60405180910390fd5b6000600190505b6008805490508110156109295760006009600883815481106108ed576108ec61261a565b5b906000526020600020016040516109049190612748565b90815260200160405180910390208190555080806109219061275f565b9150506108c8565b506001600760006101000a81548160ff0219169083151502179055507f877e2548498f42b7975a186b94ef1d32c86d420b7b806dd2be2bea293b89590460405160405180910390a1565b610987326000611d3e90919063ffffffff16565b6109c6576040517f08c379a00000000000000000000000000000000000000000000000000000000081526004016109bd906124bf565b60405180910390fd5b6109da326000611dcf90919063ffffffff16565b7f58619076adf5bb0943d100ef88d52d7c3fd691b19d3a9071b555b651fbf418da32604051610a09919061207e565b60405180910390a1565b6000600354905090565b610a31326001611d3e90919063ffffffff16565b610a70576040517f08c379a0000000000000000000000000000000000000000000000000000000008152600401610a67906127f3565b60405180910390fd5b6000600460006101000a81548160ff0219169083151502179055507fe311bc1ca37e125782c35af946e36aaca07c4510eeffada2ba114c0e9774fbb460405160405180910390a16000600760006101000a81548160ff0219169083151502179055507f7a19ed057db79e3c2fa0b97a54b43bef4fce74b31bb6c01af514b9a18a7f70ab60405160405180910390a1565b6000600460009054906101000a900460ff16905090565b6000610b2d826000611d3e90919063ffffffff16565b610b6c576040517f08c379a0000000000000000000000000000000000000000000000000000000008152600401610b63906124bf565b60405180910390fd5b60019050919050565b610b89326000611d3e90919063ffffffff16565b610bc8576040517f08c379a0000000000000000000000000000000000000000000000000000000008152600401610bbf906124bf565b60405180910390fd5b600460009054906101000a900460ff1615610c18576040517f08c379a0000000000000000000000000000000000000000000000000000000008152600401610c0f9061285f565b60405180910390fd5b8060038190555050565b80600560003373ffffffffffffffffffffffffffffffffffffffff1673ffffffffffffffffffffffffffffffffffffffff1681526020019081526020016000206000828254610c71919061250e565b92505081905550600260009054906101000a900473ffffffffffffffffffffffffffffffffffffffff1673ffffffffffffffffffffffffffffffffffffffff1663be45fd6233836040518363ffffffff1660e01b8152600401610cd59291906128bc565b6020604051808303816000875af1158015610cf4573d6000803e3d6000fd5b505050506040513d601f19601f82011682018060405250810190610d189190612924565b503373ffffffffffffffffffffffffffffffffffffffff167f9e9d0e3d8e80951b03f40584d81f0396ec2899fe7267a87e264db8309b17ac6082604051610d5f91906120a8565b60405180910390a250565b610d7e326000611d3e90919063ffffffff16565b610dbd576040517f08c379a0000000000000000000000000000000000000000000000000000000008152600401610db4906124bf565b60405180910390fd5b610dd1816000611c9390919063ffffffff16565b7f994a936646fe87ffe4f1e469d3d6aa417d6b855598397f323de5b449f765f0c381604051610e00919061207e565b60405180910390a150565b6000610e21826006611d3e90919063ffffffff16565b610e60576040517f08c379a0000000000000000000000000000000000000000000000000000000008152600401610e579061258e565b60405180910390fd5b60019050919050565b610e7d326000611d3e90919063ffffffff16565b610ebc576040517f08c379a0000000000000000000000000000000000000000000000000000000008152600401610eb3906124bf565b60405180910390fd5b80600260006101000a81548173ffffffffffffffffffffffffffffffffffffffff021916908373ffffffffffffffffffffffffffffffffffffffff16021790555050565b6000600560008373ffffffffffffffffffffffffffffffffffffffff1673ffffffffffffffffffffffffffffffffffffffff168152602001908152602001600020549050919050565b600760009054906101000a900460ff16610f98576040517f08c379a0000000000000000000000000000000000000000000000000000000008152600401610f8f9061299d565b60405180910390fd5b600060035403610fdd576040517f08c379a0000000000000000000000000000000000000000000000000000000008152600401610fd490612a09565b60405180910390fd5b6000600a82604051610fef9190612a5a565b9081526020016040518091039020540361109c5760088190806001815401808255809150506001900390600052602060002001600090919091909150908051906020019061103e929190611e79565b506001600880549050611051919061250e565b600a826040516110619190612a5a565b90815260200160405180910390208190555060016009826040516110859190612a5a565b9081526020016040518091039020819055506110d3565b60016009826040516110ae9190612a5a565b908152602001604051809103902060008282546110cb9190612a71565b925050819055505b6000600354346110e39190612af6565b9050600260009054906101000a900473ffffffffffffffffffffffffffffffffffffffff1673ffffffffffffffffffffffffffffffffffffffff1663a9059cbb336003548434611133919061250e565b61113d9190612b27565b6040518363ffffffff1660e01b815260040161115a929190612b58565b6020604051808303816000875af1158015611179573d6000803e3d6000fd5b505050506040513d601f19601f8201168201806040525081019061119d9190612924565b505050565b6000600760009054906101000a900460ff16905090565b6000600354036111fe576040517f08c379a00000000000000000000000000000000000000000000000000000000081526004016111f590612a09565b60405180910390fd5b60006003543461120e9190612af6565b9050600260009054906101000a900473ffffffffffffffffffffffffffffffffffffffff1673ffffffffffffffffffffffffffffffffffffffff1663a9059cbb33600354843461125e919061250e565b6112689190612b27565b6040518363ffffffff1660e01b8152600401611285929190612b58565b6020604051808303816000875af11580156112a4573d6000803e3d6000fd5b505050506040513d601f19601f820116820180604052508101906112c89190612924565b5050565b6112e0326006611d3e90919063ffffffff16565b61131f576040517f08c379a00000000000000000000000000000000000000000000000000000000081526004016113169061258e565b60405180910390fd5b611333326006611dcf90919063ffffffff16565b7fa06a71de40c2d39b7233b9683752a1966610faf02c36cc9ef3b24f8152987b4332604051611362919061207e565b60405180910390a1565b600260009054906101000a900473ffffffffffffffffffffffffffffffffffffffff1673ffffffffffffffffffffffffffffffffffffffff163373ffffffffffffffffffffffffffffffffffffffff16146113fc576040517f08c379a00000000000000000000000000000000000000000000000000000000081526004016113f390612bcd565b60405180910390fd5b60405160200161140b90612c39565b604051602081830303815290604052805190602001208282604051611431929190612c7e565b6040518091039020036114e457611452846000611d3e90919063ffffffff16565b611491576040517f08c379a0000000000000000000000000000000000000000000000000000000008152600401611488906124bf565b60405180910390fd5b8373ffffffffffffffffffffffffffffffffffffffff167f474cef3e0be75022a5c778de128b4eeb1bd3b6408c87c2439689cb58ad71615d846040516114d791906120a8565b60405180910390a26115d8565b600460009054906101000a900460ff16611533576040517f08c379a000000000000000000000000000000000000000000000000000000000815260040161152a906125fa565b60405180910390fd5b82600560008673ffffffffffffffffffffffffffffffffffffffff1673ffffffffffffffffffffffffffffffffffffffff16815260200190815260200160002060008282546115829190612a71565b925050819055508373ffffffffffffffffffffffffffffffffffffffff167f53b7604ee49f0e8a26e6ae4f75c962c8c467157665b09391be96ddbfcb2b74df846040516115cf91906120a8565b60405180910390a25b50505050565b60606115f4326006611d3e90919063ffffffff16565b611633576040517f08c379a000000000000000000000000000000000000000000000000000000000815260040161162a9061258e565b60405180910390fd5b600460009054906101000a900460ff16611682576040517f08c379a0000000000000000000000000000000000000000000000000000000008152600401611679906125fa565b60405180910390fd5b6001600880549050116116ca576040517f08c379a00000000000000000000000000000000000000000000000000000000081526004016116c190612ce3565b60405180910390fd5b600080600190506000600190505b60088054905081101561177d57826009600883815481106116fc576116fb61261a565b5b906000526020600020016040516117139190612748565b908152602001604051809103902054111561176a5760096008828154811061173e5761173d61261a565b5b906000526020600020016040516117559190612748565b90815260200160405180910390205492508091505b80806117759061275f565b9150506116d8565b5060006009600883815481106117965761179561261a565b5b906000526020600020016040516117ad9190612748565b908152602001604051809103902081905550600881815481106117d3576117d261261a565b5b9060005260206000200180546117e890612678565b80601f016020809104026020016040519081016040528092919081815260200182805461181490612678565b80156118615780601f1061183657610100808354040283529160200191611861565b820191906000526020600020905b81548152906001019060200180831161184457829003601f168201915b50505050509250505090565b600460009054906101000a900460ff166118bc576040517f08c379a00000000000000000000000000000000000000000000000000000000081526004016118b3906125fa565b60405180910390fd5b6118d0326001611d3e90919063ffffffff16565b61190f576040517f08c379a0000000000000000000000000000000000000000000000000000000008152600401611906906127f3565b60405180910390fd5b80600560008473ffffffffffffffffffffffffffffffffffffffff1673ffffffffffffffffffffffffffffffffffffffff168152602001908152602001600020600082825461195e919061250e565b92505081905550600260009054906101000a900473ffffffffffffffffffffffffffffffffffffffff1673ffffffffffffffffffffffffffffffffffffffff166342966c68826040518263ffffffff1660e01b81526004016119c091906120a8565b600060405180830381600087803b1580156119da57600080fd5b505af11580156119ee573d6000803e3d6000fd5b505050505050565b611a0a326006611d3e90919063ffffffff16565b611a49576040517f08c379a0000000000000000000000000000000000000000000000000000000008152600401611a409061258e565b60405180910390fd5b600460009054906101000a900460ff16611a98576040517f08c379a0000000000000000000000000000000000000000000000000000000008152600401611a8f906125fa565b60405180910390fd5b6000600760006101000a81548160ff0219169083151502179055507f7a19ed057db79e3c2fa0b97a54b43bef4fce74b31bb6c01af514b9a18a7f70ab60405160405180910390a1565b611af5326001611d3e90919063ffffffff16565b611b34576040517f08c379a0000000000000000000000000000000000000000000000000000000008152600401611b2b906127f3565b60405180910390fd5b611b48326001611dcf90919063ffffffff16565b7f24d55ebffd1d5ed6113bda634d47a96d6d0a042d564143067dc2f3c47734644632604051611b77919061207e565b60405180910390a1565b6000611b97826001611d3e90919063ffffffff16565b611bd6576040517f08c379a0000000000000000000000000000000000000000000000000000000008152600401611bcd906127f3565b60405180910390fd5b60019050919050565b611bf3326001611d3e90919063ffffffff16565b611c32576040517f08c379a0000000000000000000000000000000000000000000000000000000008152600401611c29906127f3565b60405180910390fd5b6001600460006101000a81548160ff0219169083151502179055507feacbe933e9d08a23f80dc21826bcef42d89f47da76688dc18a99d7fd43292bd760405160405180910390a1565b60056020528060005260406000206000915090505481565b600073ffffffffffffffffffffffffffffffffffffffff168173ffffffffffffffffffffffffffffffffffffffff1603611ccc57600080fd5b611cd68282611d3e565b15611ce057600080fd5b60018260000160008373ffffffffffffffffffffffffffffffffffffffff1673ffffffffffffffffffffffffffffffffffffffff16815260200190815260200160002060006101000a81548160ff0219169083151502179055505050565b60008073ffffffffffffffffffffffffffffffffffffffff168273ffffffffffffffffffffffffffffffffffffffff1603611d7857600080fd5b8260000160008373ffffffffffffffffffffffffffffffffffffffff1673ffffffffffffffffffffffffffffffffffffffff16815260200190815260200160002060009054906101000a900460ff16905092915050565b600073ffffffffffffffffffffffffffffffffffffffff168173ffffffffffffffffffffffffffffffffffffffff1603611e0857600080fd5b611e128282611d3e565b611e1b57600080fd5b60008260000160008373ffffffffffffffffffffffffffffffffffffffff1673ffffffffffffffffffffffffffffffffffffffff16815260200190815260200160002060006101000a81548160ff0219169083151502179055505050565b828054611e8590612678565b90600052602060002090601f016020900481019282611ea75760008555611eee565b82601f10611ec057805160ff1916838001178555611eee565b82800160010185558215611eee579182015b82811115611eed578251825591602001919060010190611ed2565b5b509050611efb9190611eff565b5090565b5b80821115611f18576000816000905550600101611f00565b5090565b6000604051905090565b600080fd5b600080fd5b600073ffffffffffffffffffffffffffffffffffffffff82169050919050565b6000611f5b82611f30565b9050919050565b611f6b81611f50565b8114611f7657600080fd5b50565b600081359050611f8881611f62565b92915050565b600060208284031215611fa457611fa3611f26565b5b6000611fb284828501611f79565b91505092915050565b6000611fc682611f30565b9050919050565b611fd681611fbb565b8114611fe157600080fd5b50565b600081359050611ff381611fcd565b92915050565b6000819050919050565b61200c81611ff9565b811461201757600080fd5b50565b60008135905061202981612003565b92915050565b6000806040838503121561204657612045611f26565b5b600061205485828601611fe4565b92505060206120658582860161201a565b9150509250929050565b61207881611f50565b82525050565b6000602082019050612093600083018461206f565b92915050565b6120a281611ff9565b82525050565b60006020820190506120bd6000830184612099565b92915050565b60008115159050919050565b6120d8816120c3565b82525050565b60006020820190506120f360008301846120cf565b92915050565b60006020828403121561210f5761210e611f26565b5b600061211d8482850161201a565b91505092915050565b600080fd5b600080fd5b6000601f19601f8301169050919050565b7f4e487b7100000000000000000000000000000000000000000000000000000000600052604160045260246000fd5b61217982612130565b810181811067ffffffffffffffff8211171561219857612197612141565b5b80604052505050565b60006121ab611f1c565b90506121b78282612170565b919050565b600067ffffffffffffffff8211156121d7576121d6612141565b5b6121e082612130565b9050602081019050919050565b82818337600083830152505050565b600061220f61220a846121bc565b6121a1565b90508281526020810184848401111561222b5761222a61212b565b5b6122368482856121ed565b509392505050565b600082601f83011261225357612252612126565b5b81356122638482602086016121fc565b91505092915050565b60006020828403121561228257612281611f26565b5b600082013567ffffffffffffffff8111156122a05761229f611f2b565b5b6122ac8482850161223e565b91505092915050565b600080fd5b600080fd5b60008083601f8401126122d5576122d4612126565b5b8235905067ffffffffffffffff8111156122f2576122f16122b5565b5b60208301915083600182028301111561230e5761230d6122ba565b5b9250929050565b6000806000806060858703121561232f5761232e611f26565b5b600061233d87828801611f79565b945050602061234e8782880161201a565b935050604085013567ffffffffffffffff81111561236f5761236e611f2b565b5b61237b878288016122bf565b925092505092959194509250565b600081519050919050565b600082825260208201905092915050565b60005b838110156123c35780820151818401526020810190506123a8565b838111156123d2576000848401525b50505050565b60006123e382612389565b6123ed8185612394565b93506123fd8185602086016123a5565b61240681612130565b840191505092915050565b6000602082019050818103600083015261242b81846123d8565b905092915050565b6000806040838503121561244a57612449611f26565b5b600061245885828601611f79565b92505060206124698582860161201a565b9150509250929050565b7f49535f4e4f545f414e5f4f574e45520000000000000000000000000000000000600082015250565b60006124a9600f83612394565b91506124b482612473565b602082019050919050565b600060208201905081810360008301526124d88161249c565b9050919050565b7f4e487b7100000000000000000000000000000000000000000000000000000000600052601160045260246000fd5b600061251982611ff9565b915061252483611ff9565b925082821015612537576125366124df565b5b828203905092915050565b7f49535f4e4f545f414e5f444a0000000000000000000000000000000000000000600082015250565b6000612578600c83612394565b915061258382612542565b602082019050919050565b600060208201905081810360008301526125a78161256b565b9050919050565b7f4241525f49535f4e4f545f4f50454e0000000000000000000000000000000000600082015250565b60006125e4600f83612394565b91506125ef826125ae565b602082019050919050565b60006020820190508181036000830152612613816125d7565b9050919050565b7f4e487b7100000000000000000000000000000000000000000000000000000000600052603260045260246000fd5b7f4e487b7100000000000000000000000000000000000000000000000000000000600052602260045260246000fd5b6000600282049050600182168061269057607f821691505b6020821081036126a3576126a2612649565b5b50919050565b600081905092915050565b60008190508160005260206000209050919050565b600081546126d681612678565b6126e081866126a9565b945060018216600081146126fb576001811461270c5761273f565b60ff1983168652818601935061273f565b612715856126b4565b60005b8381101561273757815481890152600182019150602081019050612718565b838801955050505b50505092915050565b600061275482846126c9565b915081905092915050565b600061276a82611ff9565b91507fffffffffffffffffffffffffffffffffffffffffffffffffffffffffffffffff820361279c5761279b6124df565b5b600182019050919050565b7f49535f4e4f545f415f4241524b45455045520000000000000000000000000000600082015250565b60006127dd601283612394565b91506127e8826127a7565b602082019050919050565b6000602082019050818103600083015261280c816127d0565b9050919050565b7f4241525f49535f4f50454e000000000000000000000000000000000000000000600082015250565b6000612849600b83612394565b915061285482612813565b602082019050919050565b600060208201905081810360008301526128788161283c565b9050919050565b600082825260208201905092915050565b60008082015250565b60006128a660048361287f565b91506128b182612890565b602082019050919050565b60006060820190506128d1600083018561206f565b6128de6020830184612099565b81810360408301526128ef81612899565b90509392505050565b612901816120c3565b811461290c57600080fd5b50565b60008151905061291e816128f8565b92915050565b60006020828403121561293a57612939611f26565b5b60006129488482850161290f565b91505092915050565b7f4e4f5f4143544956455f564f54494e4700000000000000000000000000000000600082015250565b6000612987601083612394565b915061299282612951565b602082019050919050565b600060208201905081810360008301526129b68161297a565b9050919050565b7f4e4f5f424545525f505249434500000000000000000000000000000000000000600082015250565b60006129f3600d83612394565b91506129fe826129bd565b602082019050919050565b60006020820190508181036000830152612a22816129e6565b9050919050565b6000612a3482612389565b612a3e81856126a9565b9350612a4e8185602086016123a5565b80840191505092915050565b6000612a668284612a29565b915081905092915050565b6000612a7c82611ff9565b9150612a8783611ff9565b9250827fffffffffffffffffffffffffffffffffffffffffffffffffffffffffffffffff03821115612abc57612abb6124df565b5b828201905092915050565b7f4e487b7100000000000000000000000000000000000000000000000000000000600052601260045260246000fd5b6000612b0182611ff9565b9150612b0c83611ff9565b925082612b1c57612b1b612ac7565b5b828206905092915050565b6000612b3282611ff9565b9150612b3d83611ff9565b925082612b4d57612b4c612ac7565b5b828204905092915050565b6000604082019050612b6d600083018561206f565b612b7a6020830184612099565b9392505050565b7f57524f4e475f544f4b454e5f5459504500000000000000000000000000000000600082015250565b6000612bb7601083612394565b9150612bc282612b81565b602082019050919050565b60006020820190508181036000830152612be681612baa565b9050919050565b7f737570706c790000000000000000000000000000000000000000000000000000600082015250565b6000612c236006836126a9565b9150612c2e82612bed565b600682019050919050565b6000612c4482612c16565b9150819050919050565b600081905092915050565b6000612c658385612c4e565b9350612c728385846121ed565b82840190509392505050565b6000612c8b828486612c59565b91508190509392505050565b7f4e4f5f534f4e475f494e5f504c41594c49535400000000000000000000000000600082015250565b6000612ccd601383612394565b9150612cd882612c97565b602082019050919050565b60006020820190508181036000830152612cfc81612cc0565b905091905056fea26469706673582212201fd33f77bb16e8decb88ff880ce1592bc500a34d0f440bc7fd42511d5edd8a3b64736f6c634300080d0033",
  "immutableReferences": {},
  "source": "// SPDX-License-Identifier: MIT\r\npragma solidity ^0.8.0;\r\n\r\nimport \"./Roles.sol\";\r\nimport \"./BeerBar.sol\";\r\n\r\ncontract SongVotingBar is BeerBar {\r\n    using Roles for Roles.Role;\r\n\r\n    Roles.Role private djs;\r\n    bool private votingActive;\r\n    string [] private songs;\r\n    mapping(string => uint256) private votes;\r\n    mapping(string => uint256) private indexes;\r\n\r\n    event DJAdded(address account);\r\n    event DJRemoved(address account);\r\n    event VotingStarted();\r\n    event VotingEnded();\r\n\r\n    constructor () BeerBar() {\r\n        votingActive = false;\r\n        //so that index 0 does not exist for songs\r\n        songs.push(\"\");\r\n    }\r\n\r\n    modifier isDJModifier(){\r\n        require(djs.has(tx.origin), \"IS_NOT_AN_DJ\");\r\n        _;\r\n    }\r\n\r\n    modifier votingStarted(){\r\n        require(votingActive, \"NO_ACTIVE_VOTING\");\r\n        _;\r\n    }\r\n\r\n    function isDJ(address account) external view returns (bool) {\r\n        require(djs.has(account), \"IS_NOT_AN_DJ\");\r\n        return true;\r\n    }\r\n\r\n    function addDJ(address account) external isBarOwner {\r\n        djs.add(account);\r\n        emit DJAdded(account);\r\n    }\r\n\r\n    function renounceDJ() external isDJModifier {\r\n        djs.remove(tx.origin);\r\n        emit DJRemoved(tx.origin);\r\n    }\r\n\r\n     //votes form before will be set to 0\r\n    function startVoting() external isDJModifier isBarOpen {\r\n        for (uint i=1; i<songs.length; i++){\r\n            votes[songs[i]] = 0;\r\n        }\r\n        votingActive = true;\r\n        emit VotingStarted();\r\n    }\r\n\r\n    function endVoting() external isDJModifier isBarOpen {\r\n        votingActive = false;\r\n        emit VotingEnded();\r\n    }\r\n\r\n    function votingIsActive() external view returns (bool) {\r\n        return votingActive;\r\n    }\r\n\r\n    function closeBar() override external isBarKeeperModifier {\r\n        isOpen = false;\r\n        emit BarClosed();\r\n        votingActive = false;\r\n        emit VotingEnded();\r\n    }\r\n\r\n    //if song are in playlist, plays songs with most vote, if all votes are 0, takes first song that was pushed\r\n    function playNextSong() external isDJModifier isBarOpen returns (string memory) {\r\n        require(songs.length > 1, \"NO_SONG_IN_PLAYLIST\");\r\n        uint256 maxVote = 0;\r\n        uint256 maxVotedIndex = 1;\r\n        for (uint i=1; i<songs.length; i++){\r\n            if(votes[songs[i]] > maxVote){\r\n                maxVote = votes[songs[i]];\r\n                maxVotedIndex = i;\r\n            }\r\n        }\r\n        votes[songs[maxVotedIndex]] = 0;\r\n        return songs[maxVotedIndex];\r\n    }\r\n\r\n    function voteSong(string memory song) external payable votingStarted {\r\n        require(beerPrice != 0, \"NO_BEER_PRICE\");\r\n        if(indexes[song] == 0){\r\n            songs.push(song);\r\n            indexes[song] = songs.length - 1;\r\n            votes[song] = 1;\r\n        } else {\r\n            votes[song] += 1;\r\n        }\r\n        uint tip = msg.value%beerPrice;\r\n        beerTokenContract.transfer(msg.sender, (msg.value-tip)/beerPrice);\r\n    }\r\n\r\n\r\n}\r\n",
  "sourcePath": "C:\\Users\\Jakob\\Documents\\Master\\1.Semester\\sc\\BeerBar\\contracts\\SongVotingBar.sol",
  "compiler": {
    "name": "solc",
    "version": "0.8.13+commit.abaa5c0e.Emscripten.clang"
  },
  "schemaVersion": "3.4.7",
  "updatedAt": "2022-04-19T20:03:18.418Z",
  "networkType": "ethereum",
  "devdoc": {
    "kind": "dev",
    "methods": {},
    "version": 1
  },
  "userdoc": {
    "kind": "user",
    "methods": {},
    "version": 1
  }
}