{
  "contractName": "BeerToken",
  "abi": [
    {
      "inputs": [],
      "stateMutability": "nonpayable",
      "type": "constructor"
    },
    {
      "anonymous": false,
      "inputs": [
        {
          "indexed": true,
          "internalType": "address",
          "name": "from",
          "type": "address"
        },
        {
          "indexed": true,
          "internalType": "address",
          "name": "to",
          "type": "address"
        },
        {
          "indexed": false,
          "internalType": "uint256",
          "name": "value",
          "type": "uint256"
        }
      ],
      "name": "Transfer",
      "type": "event"
    },
    {
      "inputs": [],
      "name": "_owner",
      "outputs": [
        {
          "internalType": "address",
          "name": "",
          "type": "address"
        }
      ],
      "stateMutability": "view",
      "type": "function",
      "constant": true
    },
    {
      "inputs": [
        {
          "internalType": "address",
          "name": "",
          "type": "address"
        }
      ],
      "name": "balances",
      "outputs": [
        {
          "internalType": "uint256",
          "name": "",
          "type": "uint256"
        }
      ],
      "stateMutability": "view",
      "type": "function",
      "constant": true
    },
    {
      "inputs": [],
      "name": "standard",
      "outputs": [
        {
          "internalType": "string",
          "name": "",
          "type": "string"
        }
      ],
      "stateMutability": "pure",
      "type": "function",
      "constant": true
    },
    {
      "inputs": [],
      "name": "name",
      "outputs": [
        {
          "internalType": "string",
          "name": "",
          "type": "string"
        }
      ],
      "stateMutability": "view",
      "type": "function",
      "constant": true
    },
    {
      "inputs": [],
      "name": "symbol",
      "outputs": [
        {
          "internalType": "string",
          "name": "",
          "type": "string"
        }
      ],
      "stateMutability": "view",
      "type": "function",
      "constant": true
    },
    {
      "inputs": [],
      "name": "totalSupply",
      "outputs": [
        {
          "internalType": "uint256",
          "name": "",
          "type": "uint256"
        }
      ],
      "stateMutability": "view",
      "type": "function",
      "constant": true
    },
    {
      "inputs": [],
      "name": "decimals",
      "outputs": [
        {
          "internalType": "uint8",
          "name": "",
          "type": "uint8"
        }
      ],
      "stateMutability": "view",
      "type": "function",
      "constant": true
    },
    {
      "inputs": [
        {
          "internalType": "address",
          "name": "owner",
          "type": "address"
        }
      ],
      "name": "balanceOf",
      "outputs": [
        {
          "internalType": "uint256",
          "name": "",
          "type": "uint256"
        }
      ],
      "stateMutability": "view",
      "type": "function",
      "constant": true
    },
    {
      "inputs": [
        {
          "internalType": "address",
          "name": "_to",
          "type": "address"
        },
        {
          "internalType": "uint256",
          "name": "_value",
          "type": "uint256"
        }
      ],
      "name": "transfer",
      "outputs": [
        {
          "internalType": "bool",
          "name": "success",
          "type": "bool"
        }
      ],
      "stateMutability": "nonpayable",
      "type": "function"
    },
    {
      "inputs": [
        {
          "internalType": "address",
          "name": "_to",
          "type": "address"
        },
        {
          "internalType": "uint256",
          "name": "_value",
          "type": "uint256"
        },
        {
          "internalType": "bytes",
          "name": "_data",
          "type": "bytes"
        }
      ],
      "name": "transfer",
      "outputs": [
        {
          "internalType": "bool",
          "name": "success",
          "type": "bool"
        }
      ],
      "stateMutability": "nonpayable",
      "type": "function"
    },
    {
      "inputs": [
        {
          "internalType": "address",
          "name": "account",
          "type": "address"
        },
        {
          "internalType": "uint256",
          "name": "value",
          "type": "uint256"
        }
      ],
      "name": "mint",
      "outputs": [
        {
          "internalType": "bool",
          "name": "success",
          "type": "bool"
        }
      ],
      "stateMutability": "nonpayable",
      "type": "function"
    },
    {
      "inputs": [
        {
          "internalType": "uint256",
          "name": "value",
          "type": "uint256"
        }
      ],
      "name": "burn",
      "outputs": [],
      "stateMutability": "nonpayable",
      "type": "function"
    }
  ],
  "bytecode": "0x60806040523480156200001157600080fd5b506040518060400160405280600981526020017f42656572546f6b656e0000000000000000000000000000000000000000000000815250600090805190602001906200005f92919062000111565b506040518060400160405280600481526020017f424545520000000000000000000000000000000000000000000000000000000081525060019080519060200190620000ad92919062000111565b506000600260006101000a81548160ff021916908360ff16021790555033600460006101000a81548173ffffffffffffffffffffffffffffffffffffffff021916908373ffffffffffffffffffffffffffffffffffffffff16021790555062000225565b8280546200011f90620001f0565b90600052602060002090601f0160209004810192826200014357600085556200018f565b82601f106200015e57805160ff19168380011785556200018f565b828001600101855582156200018f579182015b828111156200018e57825182559160200191906001019062000171565b5b5090506200019e9190620001a2565b5090565b5b80821115620001bd576000816000905550600101620001a3565b5090565b7f4e487b7100000000000000000000000000000000000000000000000000000000600052602260045260246000fd5b600060028204905060018216806200020957607f821691505b6020821081036200021f576200021e620001c1565b5b50919050565b61116280620002356000396000f3fe608060405234801561001057600080fd5b50600436106100b45760003560e01c80635a3b7e42116100715780635a3b7e421461018f57806370a08231146101ad57806395d89b41146101dd578063a9059cbb146101fb578063b2bdfa7b1461022b578063be45fd6214610249576100b4565b806306fdde03146100b957806318160ddd146100d757806327e235e3146100f5578063313ce5671461012557806340c10f191461014357806342966c6814610173575b600080fd5b6100c1610279565b6040516100ce9190610c10565b60405180910390f35b6100df61030b565b6040516100ec9190610c4b565b60405180910390f35b61010f600480360381019061010a9190610cce565b610315565b60405161011c9190610c4b565b60405180910390f35b61012d61032d565b60405161013a9190610d17565b60405180910390f35b61015d60048036038101906101589190610d5e565b610344565b60405161016a9190610db9565b60405180910390f35b61018d60048036038101906101889190610dd4565b6104eb565b005b6101976105f6565b6040516101a49190610c10565b60405180910390f35b6101c760048036038101906101c29190610cce565b610633565b6040516101d49190610c4b565b60405180910390f35b6101e561067c565b6040516101f29190610c10565b60405180910390f35b61021560048036038101906102109190610d5e565b61070e565b6040516102229190610db9565b60405180910390f35b61023361092f565b6040516102409190610e10565b60405180910390f35b610263600480360381019061025e9190610e90565b610955565b6040516102709190610db9565b60405180910390f35b60606000805461028890610f33565b80601f01602080910402602001604051908101604052809291908181526020018280546102b490610f33565b80156103015780601f106102d657610100808354040283529160200191610301565b820191906000526020600020905b8154815290600101906020018083116102e457829003601f168201915b5050505050905090565b6000600354905090565b60056020528060005260406000206000915090505481565b6000600260009054906101000a900460ff16905090565b6000600460009054906101000a900473ffffffffffffffffffffffffffffffffffffffff1673ffffffffffffffffffffffffffffffffffffffff163273ffffffffffffffffffffffffffffffffffffffff16146103a057600080fd5b600073ffffffffffffffffffffffffffffffffffffffff168373ffffffffffffffffffffffffffffffffffffffff16036103d957600080fd5b816003546103e79190610f93565b60038190555081600560008573ffffffffffffffffffffffffffffffffffffffff1673ffffffffffffffffffffffffffffffffffffffff168152602001908152602001600020546104389190610f93565b600560008573ffffffffffffffffffffffffffffffffffffffff1673ffffffffffffffffffffffffffffffffffffffff168152602001908152602001600020819055508273ffffffffffffffffffffffffffffffffffffffff16600073ffffffffffffffffffffffffffffffffffffffff167fddf252ad1be2c89b69c2b068fc378daa952ba7f163c4a11628f55a4df523b3ef846040516104d99190610c4b565b60405180910390a36001905092915050565b806003546104f99190610fe9565b60038190555080600560003373ffffffffffffffffffffffffffffffffffffffff1673ffffffffffffffffffffffffffffffffffffffff1681526020019081526020016000205461054a9190610fe9565b600560003373ffffffffffffffffffffffffffffffffffffffff1673ffffffffffffffffffffffffffffffffffffffff16815260200190815260200160002081905550600073ffffffffffffffffffffffffffffffffffffffff163373ffffffffffffffffffffffffffffffffffffffff167fddf252ad1be2c89b69c2b068fc378daa952ba7f163c4a11628f55a4df523b3ef836040516105eb9190610c4b565b60405180910390a350565b60606040518060400160405280600681526020017f6572633232330000000000000000000000000000000000000000000000000000815250905090565b6000600560008373ffffffffffffffffffffffffffffffffffffffff1673ffffffffffffffffffffffffffffffffffffffff168152602001908152602001600020549050919050565b60606001805461068b90610f33565b80601f01602080910402602001604051908101604052809291908181526020018280546106b790610f33565b80156107045780601f106106d957610100808354040283529160200191610704565b820191906000526020600020905b8154815290600101906020018083116106e757829003601f168201915b5050505050905090565b600081600560003373ffffffffffffffffffffffffffffffffffffffff1673ffffffffffffffffffffffffffffffffffffffff1681526020019081526020016000205461075b9190610fe9565b600560003373ffffffffffffffffffffffffffffffffffffffff1673ffffffffffffffffffffffffffffffffffffffff1681526020019081526020016000208190555081600560008573ffffffffffffffffffffffffffffffffffffffff1673ffffffffffffffffffffffffffffffffffffffff168152602001908152602001600020546107e99190610f93565b600560008573ffffffffffffffffffffffffffffffffffffffff1673ffffffffffffffffffffffffffffffffffffffff1681526020019081526020016000208190555061083583610b64565b156108c0578273ffffffffffffffffffffffffffffffffffffffff1663c0ee0b8a338460405180604001604052806004815260200160008152506040518463ffffffff1660e01b815260040161088d93929190611072565b600060405180830381600087803b1580156108a757600080fd5b505af11580156108bb573d6000803e3d6000fd5b505050505b8273ffffffffffffffffffffffffffffffffffffffff163373ffffffffffffffffffffffffffffffffffffffff167fddf252ad1be2c89b69c2b068fc378daa952ba7f163c4a11628f55a4df523b3ef8460405161091d9190610c4b565b60405180910390a36001905092915050565b600460009054906101000a900473ffffffffffffffffffffffffffffffffffffffff1681565b600083600560003373ffffffffffffffffffffffffffffffffffffffff1673ffffffffffffffffffffffffffffffffffffffff168152602001908152602001600020546109a29190610fe9565b600560003373ffffffffffffffffffffffffffffffffffffffff1673ffffffffffffffffffffffffffffffffffffffff1681526020019081526020016000208190555083600560008773ffffffffffffffffffffffffffffffffffffffff1673ffffffffffffffffffffffffffffffffffffffff16815260200190815260200160002054610a309190610f93565b600560008773ffffffffffffffffffffffffffffffffffffffff1673ffffffffffffffffffffffffffffffffffffffff16815260200190815260200160002081905550610a7c85610b64565b15610af3578473ffffffffffffffffffffffffffffffffffffffff1663c0ee0b8a338686866040518563ffffffff1660e01b8152600401610ac094939291906110ec565b600060405180830381600087803b158015610ada57600080fd5b505af1158015610aee573d6000803e3d6000fd5b505050505b8473ffffffffffffffffffffffffffffffffffffffff163373ffffffffffffffffffffffffffffffffffffffff167fddf252ad1be2c89b69c2b068fc378daa952ba7f163c4a11628f55a4df523b3ef86604051610b509190610c4b565b60405180910390a360019050949350505050565b600080823b905060008111915050919050565b600081519050919050565b600082825260208201905092915050565b60005b83811015610bb1578082015181840152602081019050610b96565b83811115610bc0576000848401525b50505050565b6000601f19601f8301169050919050565b6000610be282610b77565b610bec8185610b82565b9350610bfc818560208601610b93565b610c0581610bc6565b840191505092915050565b60006020820190508181036000830152610c2a8184610bd7565b905092915050565b6000819050919050565b610c4581610c32565b82525050565b6000602082019050610c606000830184610c3c565b92915050565b600080fd5b600080fd5b600073ffffffffffffffffffffffffffffffffffffffff82169050919050565b6000610c9b82610c70565b9050919050565b610cab81610c90565b8114610cb657600080fd5b50565b600081359050610cc881610ca2565b92915050565b600060208284031215610ce457610ce3610c66565b5b6000610cf284828501610cb9565b91505092915050565b600060ff82169050919050565b610d1181610cfb565b82525050565b6000602082019050610d2c6000830184610d08565b92915050565b610d3b81610c32565b8114610d4657600080fd5b50565b600081359050610d5881610d32565b92915050565b60008060408385031215610d7557610d74610c66565b5b6000610d8385828601610cb9565b9250506020610d9485828601610d49565b9150509250929050565b60008115159050919050565b610db381610d9e565b82525050565b6000602082019050610dce6000830184610daa565b92915050565b600060208284031215610dea57610de9610c66565b5b6000610df884828501610d49565b91505092915050565b610e0a81610c90565b82525050565b6000602082019050610e256000830184610e01565b92915050565b600080fd5b600080fd5b600080fd5b60008083601f840112610e5057610e4f610e2b565b5b8235905067ffffffffffffffff811115610e6d57610e6c610e30565b5b602083019150836001820283011115610e8957610e88610e35565b5b9250929050565b60008060008060608587031215610eaa57610ea9610c66565b5b6000610eb887828801610cb9565b9450506020610ec987828801610d49565b935050604085013567ffffffffffffffff811115610eea57610ee9610c6b565b5b610ef687828801610e3a565b925092505092959194509250565b7f4e487b7100000000000000000000000000000000000000000000000000000000600052602260045260246000fd5b60006002820490506001821680610f4b57607f821691505b602082108103610f5e57610f5d610f04565b5b50919050565b7f4e487b7100000000000000000000000000000000000000000000000000000000600052601160045260246000fd5b6000610f9e82610c32565b9150610fa983610c32565b9250827fffffffffffffffffffffffffffffffffffffffffffffffffffffffffffffffff03821115610fde57610fdd610f64565b5b828201905092915050565b6000610ff482610c32565b9150610fff83610c32565b92508282101561101257611011610f64565b5b828203905092915050565b600081519050919050565b600082825260208201905092915050565b60006110448261101d565b61104e8185611028565b935061105e818560208601610b93565b61106781610bc6565b840191505092915050565b60006060820190506110876000830186610e01565b6110946020830185610c3c565b81810360408301526110a68184611039565b9050949350505050565b82818337600083830152505050565b60006110cb8385611028565b93506110d88385846110b0565b6110e183610bc6565b840190509392505050565b60006060820190506111016000830187610e01565b61110e6020830186610c3c565b81810360408301526111218184866110bf565b90509594505050505056fea2646970667358221220196fb5bc56f772337a97e8b7447fdbc9a251e44d1820672b9d6845edab62ce1e64736f6c634300080d0033",
  "immutableReferences": {},
  "source": "// SPDX-License-Identifier: MIT\r\npragma solidity ^0.8.0;\r\n\r\nimport \"./IBeerToken.sol\";\r\n\r\ninterface IERC223Recipient {\r\n    function tokenFallback(\r\n        address _from,\r\n        uint256 _value,\r\n        bytes calldata _data\r\n    ) external;\r\n}\r\n\r\nlibrary Address {\r\n    function isContract(address account) internal view returns (bool) {\r\n        uint256 size;\r\n        assembly {\r\n            size := extcodesize(account)\r\n        }\r\n        return size > 0;\r\n    }\r\n}\r\n\r\ncontract BeerToken is IBeerToken {\r\n    string private _name;\r\n    string private _symbol;\r\n    uint8 private _decimals;\r\n    uint256 private _totalSupply;\r\n    address public _owner;\r\n    bytes constant _empty = hex\"00000000\";\r\n    mapping(address => uint256) public balances;\r\n\r\n    constructor() {\r\n        _name = 'BeerToken';\r\n        _symbol = 'BEER';\r\n        _decimals = 0;\r\n        _owner = msg.sender;\r\n    }\r\n\r\n    modifier isOwner(){\r\n        require(tx.origin == _owner);\r\n        _;\r\n    }\r\n\r\n    function standard() public pure returns (string memory) {\r\n        return \"erc223\";\r\n    }\r\n\r\n    function name() public view override returns (string memory) {\r\n        return _name;\r\n    }\r\n\r\n    function symbol() public view override returns (string memory) {\r\n        return _symbol;\r\n    }\r\n\r\n    function totalSupply() public view override returns (uint256) {\r\n        return _totalSupply;\r\n    }\r\n\r\n    function decimals() public view override returns (uint8) {\r\n        return _decimals;\r\n    }\r\n\r\n    function balanceOf(address owner) public view override returns (uint256) {\r\n        return balances[owner];\r\n    }\r\n\r\n    function transfer(address _to, uint256 _value, bytes calldata _data) public override returns (bool success) {\r\n        balances[msg.sender] = balances[msg.sender] - _value;\r\n        balances[_to] = balances[_to] + _value;\r\n        if (Address.isContract(_to)) {\r\n            IERC223Recipient(_to).tokenFallback(msg.sender, _value, _data);\r\n        }\r\n        emit Transfer(msg.sender, _to, _value);\r\n        return true;\r\n    }\r\n\r\n    function transfer(address _to, uint256 _value) public override returns (bool success){\r\n        balances[msg.sender] = balances[msg.sender] - _value;\r\n        balances[_to] = balances[_to] + _value;\r\n        if (Address.isContract(_to)) {\r\n            IERC223Recipient(_to).tokenFallback(msg.sender, _value, _empty);\r\n        }\r\n        emit Transfer(msg.sender, _to, _value);\r\n        return true;\r\n    }\r\n\r\n    function mint(address account, uint256 value) public isOwner returns (bool success) {\r\n        require(account != address(0));\r\n        _totalSupply = _totalSupply + (value);\r\n        balances[account] = balances[account] + (value);\r\n        emit Transfer(address(0), account, value);\r\n        return true;\r\n    }\r\n\r\n    function burn(uint256 value) public {\r\n        _totalSupply = _totalSupply - (value);\r\n        balances[msg.sender] = balances[msg.sender] - (value);\r\n        emit Transfer(msg.sender, address(0), value);\r\n    }\r\n}\r\n",
  "sourcePath": "C:\\Users\\Jakob\\Documents\\Master\\1.Semester\\sc\\BeerBar\\contracts\\BeerToken.sol",
  "compiler": {
    "name": "solc",
    "version": "0.8.13+commit.abaa5c0e.Emscripten.clang"
  },
  "schemaVersion": "3.4.7",
  "updatedAt": "2022-04-20T09:57:09.706Z",
  "networkType": "ethereum",
  "devdoc": {
    "kind": "dev",
    "methods": {},
    "version": 1
  },
  "userdoc": {
    "kind": "user",
    "methods": {},
    "version": 1
  }
}