{
  "contractName": "BeerBar",
  "abi": [
    {
      "inputs": [],
      "stateMutability": "nonpayable",
      "type": "constructor"
    },
    {
      "anonymous": false,
      "inputs": [],
      "name": "BarClosed",
      "type": "event"
    },
    {
      "anonymous": false,
      "inputs": [],
      "name": "BarOpened",
      "type": "event"
    },
    {
      "anonymous": false,
      "inputs": [
        {
          "indexed": false,
          "internalType": "address",
          "name": "account",
          "type": "address"
        }
      ],
      "name": "BarkeeperAdded",
      "type": "event"
    },
    {
      "anonymous": false,
      "inputs": [
        {
          "indexed": false,
          "internalType": "address",
          "name": "account",
          "type": "address"
        }
      ],
      "name": "BarkeeperRemoved",
      "type": "event"
    },
    {
      "anonymous": false,
      "inputs": [
        {
          "indexed": true,
          "internalType": "address",
          "name": "from",
          "type": "address"
        },
        {
          "indexed": false,
          "internalType": "uint256",
          "name": "amount",
          "type": "uint256"
        }
      ],
      "name": "BeerCanceled",
      "type": "event"
    },
    {
      "anonymous": false,
      "inputs": [
        {
          "indexed": true,
          "internalType": "address",
          "name": "from",
          "type": "address"
        },
        {
          "indexed": false,
          "internalType": "uint256",
          "name": "amount",
          "type": "uint256"
        }
      ],
      "name": "BeerOrdered",
      "type": "event"
    },
    {
      "anonymous": false,
      "inputs": [
        {
          "indexed": true,
          "internalType": "address",
          "name": "from",
          "type": "address"
        },
        {
          "indexed": false,
          "internalType": "uint256",
          "name": "amount",
          "type": "uint256"
        }
      ],
      "name": "BeerSupplied",
      "type": "event"
    },
    {
      "anonymous": false,
      "inputs": [
        {
          "indexed": false,
          "internalType": "address",
          "name": "account",
          "type": "address"
        }
      ],
      "name": "OwnerAdded",
      "type": "event"
    },
    {
      "anonymous": false,
      "inputs": [
        {
          "indexed": false,
          "internalType": "address",
          "name": "account",
          "type": "address"
        }
      ],
      "name": "OwnerRemoved",
      "type": "event"
    },
    {
      "inputs": [
        {
          "internalType": "address",
          "name": "",
          "type": "address"
        }
      ],
      "name": "orders",
      "outputs": [
        {
          "internalType": "uint256",
          "name": "",
          "type": "uint256"
        }
      ],
      "stateMutability": "view",
      "type": "function"
    },
    {
      "inputs": [
        {
          "internalType": "address",
          "name": "account",
          "type": "address"
        }
      ],
      "name": "isOwner",
      "outputs": [
        {
          "internalType": "bool",
          "name": "",
          "type": "bool"
        }
      ],
      "stateMutability": "view",
      "type": "function"
    },
    {
      "inputs": [
        {
          "internalType": "address",
          "name": "account",
          "type": "address"
        }
      ],
      "name": "addOwner",
      "outputs": [],
      "stateMutability": "nonpayable",
      "type": "function"
    },
    {
      "inputs": [],
      "name": "renounceOwner",
      "outputs": [],
      "stateMutability": "nonpayable",
      "type": "function"
    },
    {
      "inputs": [
        {
          "internalType": "address",
          "name": "account",
          "type": "address"
        }
      ],
      "name": "isBarkeeper",
      "outputs": [
        {
          "internalType": "bool",
          "name": "",
          "type": "bool"
        }
      ],
      "stateMutability": "view",
      "type": "function"
    },
    {
      "inputs": [
        {
          "internalType": "address",
          "name": "account",
          "type": "address"
        }
      ],
      "name": "addBarkeeper",
      "outputs": [],
      "stateMutability": "nonpayable",
      "type": "function"
    },
    {
      "inputs": [],
      "name": "renounceBarkeeper",
      "outputs": [],
      "stateMutability": "nonpayable",
      "type": "function"
    },
    {
      "inputs": [
        {
          "internalType": "address",
          "name": "_address",
          "type": "address"
        }
      ],
      "name": "setBeerTokenContractAddress",
      "outputs": [],
      "stateMutability": "nonpayable",
      "type": "function"
    },
    {
      "inputs": [],
      "name": "beerTokenContractAddress",
      "outputs": [
        {
          "internalType": "address",
          "name": "",
          "type": "address"
        }
      ],
      "stateMutability": "view",
      "type": "function"
    },
    {
      "inputs": [],
      "name": "openBar",
      "outputs": [],
      "stateMutability": "nonpayable",
      "type": "function"
    },
    {
      "inputs": [],
      "name": "closeBar",
      "outputs": [],
      "stateMutability": "nonpayable",
      "type": "function"
    },
    {
      "inputs": [],
      "name": "barIsOpen",
      "outputs": [
        {
          "internalType": "bool",
          "name": "",
          "type": "bool"
        }
      ],
      "stateMutability": "view",
      "type": "function"
    },
    {
      "inputs": [
        {
          "internalType": "address",
          "name": "customer",
          "type": "address"
        },
        {
          "internalType": "uint256",
          "name": "amount",
          "type": "uint256"
        }
      ],
      "name": "serveBeer",
      "outputs": [],
      "stateMutability": "nonpayable",
      "type": "function"
    },
    {
      "inputs": [
        {
          "internalType": "uint256",
          "name": "amount",
          "type": "uint256"
        }
      ],
      "name": "cancelOrder",
      "outputs": [],
      "stateMutability": "nonpayable",
      "type": "function"
    },
    {
      "inputs": [
        {
          "internalType": "address",
          "name": "_addr",
          "type": "address"
        }
      ],
      "name": "pendingBeer",
      "outputs": [
        {
          "internalType": "uint256",
          "name": "",
          "type": "uint256"
        }
      ],
      "stateMutability": "view",
      "type": "function"
    },
    {
      "inputs": [
        {
          "internalType": "uint256",
          "name": "_price",
          "type": "uint256"
        }
      ],
      "name": "setBeerPrice",
      "outputs": [],
      "stateMutability": "nonpayable",
      "type": "function"
    },
    {
      "inputs": [],
      "name": "getBeerPrice",
      "outputs": [
        {
          "internalType": "uint256",
          "name": "",
          "type": "uint256"
        }
      ],
      "stateMutability": "view",
      "type": "function"
    },
    {
      "inputs": [],
      "name": "buyToken",
      "outputs": [],
      "stateMutability": "payable",
      "type": "function"
    },
    {
      "inputs": [
        {
          "internalType": "address payable",
          "name": "_receiver",
          "type": "address"
        },
        {
          "internalType": "uint256",
          "name": "_amount",
          "type": "uint256"
        }
      ],
      "name": "payout",
      "outputs": [],
      "stateMutability": "nonpayable",
      "type": "function"
    },
    {
      "inputs": [
        {
          "internalType": "address",
          "name": "_from",
          "type": "address"
        },
        {
          "internalType": "uint256",
          "name": "_value",
          "type": "uint256"
        },
        {
          "internalType": "bytes",
          "name": "_data",
          "type": "bytes"
        }
      ],
      "name": "tokenFallback",
      "outputs": [],
      "stateMutability": "nonpayable",
      "type": "function"
    }
  ],
  "bytecode": "0x60806040523480156200001157600080fd5b506200002d3360006200004e60201b6200115a1790919060201c565b6000600460006101000a81548160ff02191690831515021790555062000195565b600073ffffffffffffffffffffffffffffffffffffffff168173ffffffffffffffffffffffffffffffffffffffff16036200008857600080fd5b6200009a82826200010360201b60201c565b15620000a557600080fd5b60018260000160008373ffffffffffffffffffffffffffffffffffffffff1673ffffffffffffffffffffffffffffffffffffffff16815260200190815260200160002060006101000a81548160ff0219169083151502179055505050565b60008073ffffffffffffffffffffffffffffffffffffffff168273ffffffffffffffffffffffffffffffffffffffff16036200013e57600080fd5b8260000160008373ffffffffffffffffffffffffffffffffffffffff1673ffffffffffffffffffffffffffffffffffffffff16815260200190815260200160002060009054906101000a900460ff16905092915050565b611c3180620001a56000396000f3fe60806040526004361061011f5760003560e01c80637065cb48116100a0578063c2893a9511610064578063c2893a9514610376578063cb1560e51461039f578063cf45d7d5146103b6578063da9017dc146103f3578063f40e84711461040a5761011f565b80637065cb48146102b457806379320fe2146102dd5780638124020e14610306578063a482171914610343578063c0ee0b8a1461034d5761011f565b806328ef8946116100e757806328ef8946146101e35780632b585821146101fa5780632f54bf6e146102255780634c2e589d14610262578063514fcac71461028b5761011f565b806301b0533614610124578063117de2fd1461014d5780631c0e7b8a1461017657806328c23a45146101a157806328ce8031146101b8575b600080fd5b34801561013057600080fd5b5061014b600480360381019061014691906113a8565b610447565b005b34801561015957600080fd5b50610174600480360381019061016f9190611449565b6104e8565b005b34801561018257600080fd5b5061018b61059f565b6040516101989190611498565b60405180910390f35b3480156101ad57600080fd5b506101b66105c9565b005b3480156101c457600080fd5b506101cd610669565b6040516101da91906114c2565b60405180910390f35b3480156101ef57600080fd5b506101f8610673565b005b34801561020657600080fd5b5061020f61070f565b60405161021c91906114f8565b60405180910390f35b34801561023157600080fd5b5061024c600480360381019061024791906113a8565b610726565b60405161025991906114f8565b60405180910390f35b34801561026e57600080fd5b5061028960048036038101906102849190611513565b610754565b005b34801561029757600080fd5b506102b260048036038101906102ad9190611513565b610801565b005b3480156102c057600080fd5b506102db60048036038101906102d691906113a8565b610949565b005b3480156102e957600080fd5b5061030460048036038101906102ff91906113a8565b6109ea565b005b34801561031257600080fd5b5061032d600480360381019061032891906113a8565b610a81565b60405161033a91906114c2565b60405180910390f35b61034b610aca565b005b34801561035957600080fd5b50610374600480360381019061036f91906115a5565b610bdd565b005b34801561038257600080fd5b5061039d60048036038101906103989190611619565b610e4f565b005b3480156103ab57600080fd5b506103b4610fd8565b005b3480156103c257600080fd5b506103dd60048036038101906103d891906113a8565b611078565b6040516103ea91906114f8565b60405180910390f35b3480156103ff57600080fd5b506104086110a6565b005b34801561041657600080fd5b50610431600480360381019061042c91906113a8565b611142565b60405161043e91906114c2565b60405180910390f35b61045b32600061120590919063ffffffff16565b61049a576040517f08c379a0000000000000000000000000000000000000000000000000000000008152600401610491906116b6565b60405180910390fd5b6104ae81600161115a90919063ffffffff16565b7fddaea0f56ddd451545a029e309c9900e717dd4fc8fbd099d1fa0f6e8622d1eea816040516104dd9190611498565b60405180910390a150565b6104fc32600061120590919063ffffffff16565b61053b576040517f08c379a0000000000000000000000000000000000000000000000000000000008152600401610532906116b6565b60405180910390fd5b600081476105499190611705565b101561055457600080fd5b8173ffffffffffffffffffffffffffffffffffffffff166108fc829081150290604051600060405180830381858888f1935050505015801561059a573d6000803e3d6000fd5b505050565b6000600260009054906101000a900473ffffffffffffffffffffffffffffffffffffffff16905090565b6105dd32600061120590919063ffffffff16565b61061c576040517f08c379a0000000000000000000000000000000000000000000000000000000008152600401610613906116b6565b60405180910390fd5b61063032600061129690919063ffffffff16565b7f58619076adf5bb0943d100ef88d52d7c3fd691b19d3a9071b555b651fbf418da3260405161065f9190611498565b60405180910390a1565b6000600354905090565b61068732600161120590919063ffffffff16565b6106c6576040517f08c379a00000000000000000000000000000000000000000000000000000000081526004016106bd90611785565b60405180910390fd5b6000600460006101000a81548160ff0219169083151502179055507fe311bc1ca37e125782c35af946e36aaca07c4510eeffada2ba114c0e9774fbb460405160405180910390a1565b6000600460009054906101000a900460ff16905090565b600061073c82600061120590919063ffffffff16565b1561074a576001905061074f565b600090505b919050565b61076832600061120590919063ffffffff16565b6107a7576040517f08c379a000000000000000000000000000000000000000000000000000000000815260040161079e906116b6565b60405180910390fd5b600460009054906101000a900460ff16156107f7576040517f08c379a00000000000000000000000000000000000000000000000000000000081526004016107ee906117f1565b60405180910390fd5b8060038190555050565b80600560003373ffffffffffffffffffffffffffffffffffffffff1673ffffffffffffffffffffffffffffffffffffffff16815260200190815260200160002060008282546108509190611705565b92505081905550600260009054906101000a900473ffffffffffffffffffffffffffffffffffffffff1673ffffffffffffffffffffffffffffffffffffffff1663be45fd6233836040518363ffffffff1660e01b81526004016108b492919061184e565b6020604051808303816000875af11580156108d3573d6000803e3d6000fd5b505050506040513d601f19601f820116820180604052508101906108f791906118b6565b503373ffffffffffffffffffffffffffffffffffffffff167f9e9d0e3d8e80951b03f40584d81f0396ec2899fe7267a87e264db8309b17ac608260405161093e91906114c2565b60405180910390a250565b61095d32600061120590919063ffffffff16565b61099c576040517f08c379a0000000000000000000000000000000000000000000000000000000008152600401610993906116b6565b60405180910390fd5b6109b081600061115a90919063ffffffff16565b7f994a936646fe87ffe4f1e469d3d6aa417d6b855598397f323de5b449f765f0c3816040516109df9190611498565b60405180910390a150565b6109fe32600061120590919063ffffffff16565b610a3d576040517f08c379a0000000000000000000000000000000000000000000000000000000008152600401610a34906116b6565b60405180910390fd5b80600260006101000a81548173ffffffffffffffffffffffffffffffffffffffff021916908373ffffffffffffffffffffffffffffffffffffffff16021790555050565b6000600560008373ffffffffffffffffffffffffffffffffffffffff1673ffffffffffffffffffffffffffffffffffffffff168152602001908152602001600020549050919050565b600060035403610b0f576040517f08c379a0000000000000000000000000000000000000000000000000000000008152600401610b069061192f565b60405180910390fd5b600060035434610b1f919061197e565b9050600260009054906101000a900473ffffffffffffffffffffffffffffffffffffffff1673ffffffffffffffffffffffffffffffffffffffff1663a9059cbb336003548434610b6f9190611705565b610b7991906119af565b6040518363ffffffff1660e01b8152600401610b969291906119e0565b6020604051808303816000875af1158015610bb5573d6000803e3d6000fd5b505050506040513d601f19601f82011682018060405250810190610bd991906118b6565b5050565b600260009054906101000a900473ffffffffffffffffffffffffffffffffffffffff1673ffffffffffffffffffffffffffffffffffffffff163373ffffffffffffffffffffffffffffffffffffffff1614610c6d576040517f08c379a0000000000000000000000000000000000000000000000000000000008152600401610c6490611a55565b60405180910390fd5b604051602001610c7c90611acc565b604051602081830303815290604052805190602001208282604051610ca2929190611b20565b604051809103902003610d5557610cc384600061120590919063ffffffff16565b610d02576040517f08c379a0000000000000000000000000000000000000000000000000000000008152600401610cf9906116b6565b60405180910390fd5b8373ffffffffffffffffffffffffffffffffffffffff167f474cef3e0be75022a5c778de128b4eeb1bd3b6408c87c2439689cb58ad71615d84604051610d4891906114c2565b60405180910390a2610e49565b600460009054906101000a900460ff16610da4576040517f08c379a0000000000000000000000000000000000000000000000000000000008152600401610d9b90611b85565b60405180910390fd5b82600560008673ffffffffffffffffffffffffffffffffffffffff1673ffffffffffffffffffffffffffffffffffffffff1681526020019081526020016000206000828254610df39190611ba5565b925050819055508373ffffffffffffffffffffffffffffffffffffffff167f53b7604ee49f0e8a26e6ae4f75c962c8c467157665b09391be96ddbfcb2b74df84604051610e4091906114c2565b60405180910390a25b50505050565b600460009054906101000a900460ff16610e9e576040517f08c379a0000000000000000000000000000000000000000000000000000000008152600401610e9590611b85565b60405180910390fd5b610eb232600161120590919063ffffffff16565b610ef1576040517f08c379a0000000000000000000000000000000000000000000000000000000008152600401610ee890611785565b60405180910390fd5b80600560008473ffffffffffffffffffffffffffffffffffffffff1673ffffffffffffffffffffffffffffffffffffffff1681526020019081526020016000206000828254610f409190611705565b92505081905550600260009054906101000a900473ffffffffffffffffffffffffffffffffffffffff1673ffffffffffffffffffffffffffffffffffffffff166342966c68826040518263ffffffff1660e01b8152600401610fa291906114c2565b600060405180830381600087803b158015610fbc57600080fd5b505af1158015610fd0573d6000803e3d6000fd5b505050505050565b610fec32600161120590919063ffffffff16565b61102b576040517f08c379a000000000000000000000000000000000000000000000000000000000815260040161102290611785565b60405180910390fd5b61103f32600161129690919063ffffffff16565b7f24d55ebffd1d5ed6113bda634d47a96d6d0a042d564143067dc2f3c4773464463260405161106e9190611498565b60405180910390a1565b600061108e82600161120590919063ffffffff16565b1561109c57600190506110a1565b600090505b919050565b6110ba32600161120590919063ffffffff16565b6110f9576040517f08c379a00000000000000000000000000000000000000000000000000000000081526004016110f090611785565b60405180910390fd5b6001600460006101000a81548160ff0219169083151502179055507feacbe933e9d08a23f80dc21826bcef42d89f47da76688dc18a99d7fd43292bd760405160405180910390a1565b60056020528060005260406000206000915090505481565b600073ffffffffffffffffffffffffffffffffffffffff168173ffffffffffffffffffffffffffffffffffffffff160361119357600080fd5b61119d8282611205565b156111a757600080fd5b60018260000160008373ffffffffffffffffffffffffffffffffffffffff1673ffffffffffffffffffffffffffffffffffffffff16815260200190815260200160002060006101000a81548160ff0219169083151502179055505050565b60008073ffffffffffffffffffffffffffffffffffffffff168273ffffffffffffffffffffffffffffffffffffffff160361123f57600080fd5b8260000160008373ffffffffffffffffffffffffffffffffffffffff1673ffffffffffffffffffffffffffffffffffffffff16815260200190815260200160002060009054906101000a900460ff16905092915050565b600073ffffffffffffffffffffffffffffffffffffffff168173ffffffffffffffffffffffffffffffffffffffff16036112cf57600080fd5b6112d98282611205565b6112e257600080fd5b60008260000160008373ffffffffffffffffffffffffffffffffffffffff1673ffffffffffffffffffffffffffffffffffffffff16815260200190815260200160002060006101000a81548160ff0219169083151502179055505050565b600080fd5b600080fd5b600073ffffffffffffffffffffffffffffffffffffffff82169050919050565b60006113758261134a565b9050919050565b6113858161136a565b811461139057600080fd5b50565b6000813590506113a28161137c565b92915050565b6000602082840312156113be576113bd611340565b5b60006113cc84828501611393565b91505092915050565b60006113e08261134a565b9050919050565b6113f0816113d5565b81146113fb57600080fd5b50565b60008135905061140d816113e7565b92915050565b6000819050919050565b61142681611413565b811461143157600080fd5b50565b6000813590506114438161141d565b92915050565b600080604083850312156114605761145f611340565b5b600061146e858286016113fe565b925050602061147f85828601611434565b9150509250929050565b6114928161136a565b82525050565b60006020820190506114ad6000830184611489565b92915050565b6114bc81611413565b82525050565b60006020820190506114d760008301846114b3565b92915050565b60008115159050919050565b6114f2816114dd565b82525050565b600060208201905061150d60008301846114e9565b92915050565b60006020828403121561152957611528611340565b5b600061153784828501611434565b91505092915050565b600080fd5b600080fd5b600080fd5b60008083601f84011261156557611564611540565b5b8235905067ffffffffffffffff81111561158257611581611545565b5b60208301915083600182028301111561159e5761159d61154a565b5b9250929050565b600080600080606085870312156115bf576115be611340565b5b60006115cd87828801611393565b94505060206115de87828801611434565b935050604085013567ffffffffffffffff8111156115ff576115fe611345565b5b61160b8782880161154f565b925092505092959194509250565b600080604083850312156116305761162f611340565b5b600061163e85828601611393565b925050602061164f85828601611434565b9150509250929050565b600082825260208201905092915050565b7f49535f4e4f545f414e5f4f574e45520000000000000000000000000000000000600082015250565b60006116a0600f83611659565b91506116ab8261166a565b602082019050919050565b600060208201905081810360008301526116cf81611693565b9050919050565b7f4e487b7100000000000000000000000000000000000000000000000000000000600052601160045260246000fd5b600061171082611413565b915061171b83611413565b92508282101561172e5761172d6116d6565b5b828203905092915050565b7f49535f4e4f545f415f4241524b45455045520000000000000000000000000000600082015250565b600061176f601283611659565b915061177a82611739565b602082019050919050565b6000602082019050818103600083015261179e81611762565b9050919050565b7f4241525f49535f4f50454e000000000000000000000000000000000000000000600082015250565b60006117db600b83611659565b91506117e6826117a5565b602082019050919050565b6000602082019050818103600083015261180a816117ce565b9050919050565b600082825260208201905092915050565b60008082015250565b6000611838600483611811565b915061184382611822565b602082019050919050565b60006060820190506118636000830185611489565b61187060208301846114b3565b81810360408301526118818161182b565b90509392505050565b611893816114dd565b811461189e57600080fd5b50565b6000815190506118b08161188a565b92915050565b6000602082840312156118cc576118cb611340565b5b60006118da848285016118a1565b91505092915050565b7f4e4f5f424545525f505249434500000000000000000000000000000000000000600082015250565b6000611919600d83611659565b9150611924826118e3565b602082019050919050565b600060208201905081810360008301526119488161190c565b9050919050565b7f4e487b7100000000000000000000000000000000000000000000000000000000600052601260045260246000fd5b600061198982611413565b915061199483611413565b9250826119a4576119a361194f565b5b828206905092915050565b60006119ba82611413565b91506119c583611413565b9250826119d5576119d461194f565b5b828204905092915050565b60006040820190506119f56000830185611489565b611a0260208301846114b3565b9392505050565b7f57524f4e475f544f4b454e5f5459504500000000000000000000000000000000600082015250565b6000611a3f601083611659565b9150611a4a82611a09565b602082019050919050565b60006020820190508181036000830152611a6e81611a32565b9050919050565b600081905092915050565b7f737570706c790000000000000000000000000000000000000000000000000000600082015250565b6000611ab6600683611a75565b9150611ac182611a80565b600682019050919050565b6000611ad782611aa9565b9150819050919050565b600081905092915050565b82818337600083830152505050565b6000611b078385611ae1565b9350611b14838584611aec565b82840190509392505050565b6000611b2d828486611afb565b91508190509392505050565b7f4241525f49535f4e4f545f4f50454e0000000000000000000000000000000000600082015250565b6000611b6f600f83611659565b9150611b7a82611b39565b602082019050919050565b60006020820190508181036000830152611b9e81611b62565b9050919050565b6000611bb082611413565b9150611bbb83611413565b9250827fffffffffffffffffffffffffffffffffffffffffffffffffffffffffffffffff03821115611bf057611bef6116d6565b5b82820190509291505056fea26469706673582212206c5a20bb34aab99443138053e8a84cf77d21b9ef93520c3b2cdf05c23aa9d99f64736f6c634300080d0033",
  "immutableReferences": {},
  "source": "// SPDX-License-Identifier: MIT\r\npragma solidity ^0.8.0;\r\n\r\nimport \"./Roles.sol\";\r\nimport \"./IBeerBar.sol\";\r\nimport \"./BeerToken.sol\";\r\n\r\ncontract BeerBar is IBeerBar, IERC223Recipient {\r\n    using Roles for Roles.Role;\r\n\r\n    Roles.Role private owners;\r\n    Roles.Role private barkeepers;\r\n    BeerToken internal beerTokenContract;\r\n    uint256 internal beerPrice;\r\n    bool internal isOpen;\r\n    mapping(address => uint256) public orders;\r\n\r\n    constructor () {\r\n        owners.add(msg.sender);\r\n        isOpen = false;\r\n    }\r\n\r\n    modifier isBarOwner(){\r\n        require(owners.has(tx.origin), \"IS_NOT_AN_OWNER\");\r\n        _;\r\n    }\r\n\r\n    modifier isBarKeeperModifier(){\r\n        require(barkeepers.has(tx.origin), \"IS_NOT_A_BARKEEPER\");\r\n        _;\r\n    }\r\n\r\n    modifier isBarOpen(){\r\n        require(isOpen, \"BAR_IS_NOT_OPEN\");\r\n        _;\r\n    }\r\n\r\n    modifier isBarClosed(){\r\n        require(!isOpen, \"BAR_IS_OPEN\");\r\n        _;\r\n    }\r\n\r\n    function isOwner(address account) external view returns (bool) {\r\n        if(owners.has(account)){\r\n            return true;\r\n        }\r\n        return false;\r\n    }\r\n\r\n    function addOwner(address account) external isBarOwner {\r\n        owners.add(account);\r\n        emit OwnerAdded(account);\r\n    }\r\n\r\n    function renounceOwner() external isBarOwner {\r\n        owners.remove(tx.origin);\r\n        emit OwnerRemoved(tx.origin);\r\n    }\r\n\r\n    function isBarkeeper(address account) external view returns (bool) {\r\n        if(barkeepers.has(account)){\r\n            return true;\r\n        }\r\n        return false;\r\n    }\r\n\r\n    function addBarkeeper(address account) external isBarOwner {\r\n        barkeepers.add(account);\r\n        emit BarkeeperAdded(account);\r\n    }\r\n\r\n    function renounceBarkeeper() external isBarKeeperModifier {\r\n        barkeepers.remove(tx.origin);\r\n        emit BarkeeperRemoved(tx.origin);\r\n    }\r\n\r\n    function setBeerTokenContractAddress(address _address) external isBarOwner {\r\n        beerTokenContract = BeerToken(_address);\r\n    }\r\n\r\n    function beerTokenContractAddress() external view returns(address) {\r\n        return address(beerTokenContract);\r\n    }\r\n\r\n    function openBar() external isBarKeeperModifier {\r\n        isOpen = true;\r\n        emit BarOpened();\r\n    }\r\n\r\n    function closeBar() virtual external isBarKeeperModifier {\r\n        isOpen = false;\r\n        emit BarClosed();\r\n    }\r\n\r\n    function barIsOpen() external view returns (bool) {\r\n        return isOpen;\r\n    }\r\n\r\n    function serveBeer(address customer, uint amount) external isBarOpen isBarKeeperModifier {\r\n        orders[customer] -= amount;\r\n        beerTokenContract.burn(amount);\r\n    }\r\n\r\n    function cancelOrder(uint amount) external{\r\n        orders[msg.sender] -= amount;\r\n        beerTokenContract.transfer(msg.sender, amount, hex\"00000000\");\r\n        emit BeerCanceled(msg.sender, amount);\r\n    }\r\n\r\n    function pendingBeer(address _addr) external view returns (uint256){\r\n        return orders[_addr];\r\n    }\r\n\r\n    function setBeerPrice(uint256 _price) external isBarOwner isBarClosed {\r\n        beerPrice = _price;\r\n    }\r\n\r\n    function getBeerPrice() external view returns(uint256) {\r\n        return beerPrice;\r\n    }\r\n\r\n    function buyToken() external payable{\r\n        require(beerPrice != 0, \"NO_BEER_PRICE\");\r\n        uint tip = msg.value%beerPrice;\r\n        beerTokenContract.transfer(msg.sender, (msg.value-tip)/beerPrice);\r\n    }\r\n\r\n    function payout(address payable _receiver, uint256 _amount) external isBarOwner {\r\n        require(address(this).balance-_amount >= 0);\r\n        _receiver.transfer(_amount);\r\n    }\r\n\r\n    function tokenFallback(address _from, uint256 _value, bytes calldata _data) external {\r\n        require(msg.sender == address(beerTokenContract), \"WRONG_TOKEN_TYPE\");\r\n        if(keccak256(_data) == keccak256(abi.encodePacked(\"supply\"))){\r\n            require(owners.has(_from), \"IS_NOT_AN_OWNER\");\r\n            emit BeerSupplied(_from, _value);\r\n        }else{\r\n            require(isOpen, \"BAR_IS_NOT_OPEN\");\r\n            orders[_from] += _value;\r\n            emit BeerOrdered(_from, _value);\r\n        }\r\n    }\r\n\r\n}\r\n",
  "sourcePath": "C:\\Users\\Jakob\\Documents\\Master\\1.Semester\\sc\\BeerBar\\contracts\\BeerBar.sol",
  "compiler": {
    "name": "solc",
    "version": "0.8.13+commit.abaa5c0e.Emscripten.clang"
  },
  "schemaVersion": "3.4.7",
  "updatedAt": "2022-04-20T09:55:14.869Z",
  "devdoc": {
    "kind": "dev",
    "methods": {},
    "version": 1
  },
  "userdoc": {
    "kind": "user",
    "methods": {},
    "version": 1
  }
}