{
  "contractName": "SongVotingBar",
  "abi": [
    {
      "inputs": [],
      "stateMutability": "nonpayable",
      "type": "constructor"
    },
    {
      "anonymous": false,
      "inputs": [],
      "name": "BarClosed",
      "type": "event"
    },
    {
      "anonymous": false,
      "inputs": [],
      "name": "BarOpened",
      "type": "event"
    },
    {
      "anonymous": false,
      "inputs": [
        {
          "indexed": false,
          "internalType": "address",
          "name": "account",
          "type": "address"
        }
      ],
      "name": "BarkeeperAdded",
      "type": "event"
    },
    {
      "anonymous": false,
      "inputs": [
        {
          "indexed": false,
          "internalType": "address",
          "name": "account",
          "type": "address"
        }
      ],
      "name": "BarkeeperRemoved",
      "type": "event"
    },
    {
      "anonymous": false,
      "inputs": [
        {
          "indexed": true,
          "internalType": "address",
          "name": "from",
          "type": "address"
        },
        {
          "indexed": false,
          "internalType": "uint256",
          "name": "amount",
          "type": "uint256"
        }
      ],
      "name": "BeerCanceled",
      "type": "event"
    },
    {
      "anonymous": false,
      "inputs": [
        {
          "indexed": true,
          "internalType": "address",
          "name": "from",
          "type": "address"
        },
        {
          "indexed": false,
          "internalType": "uint256",
          "name": "amount",
          "type": "uint256"
        }
      ],
      "name": "BeerOrdered",
      "type": "event"
    },
    {
      "anonymous": false,
      "inputs": [
        {
          "indexed": true,
          "internalType": "address",
          "name": "from",
          "type": "address"
        },
        {
          "indexed": false,
          "internalType": "uint256",
          "name": "amount",
          "type": "uint256"
        }
      ],
      "name": "BeerSupplied",
      "type": "event"
    },
    {
      "anonymous": false,
      "inputs": [
        {
          "indexed": false,
          "internalType": "address",
          "name": "account",
          "type": "address"
        }
      ],
      "name": "DJAdded",
      "type": "event"
    },
    {
      "anonymous": false,
      "inputs": [
        {
          "indexed": false,
          "internalType": "address",
          "name": "account",
          "type": "address"
        }
      ],
      "name": "DJRemoved",
      "type": "event"
    },
    {
      "anonymous": false,
      "inputs": [
        {
          "indexed": false,
          "internalType": "address",
          "name": "account",
          "type": "address"
        }
      ],
      "name": "OwnerAdded",
      "type": "event"
    },
    {
      "anonymous": false,
      "inputs": [
        {
          "indexed": false,
          "internalType": "address",
          "name": "account",
          "type": "address"
        }
      ],
      "name": "OwnerRemoved",
      "type": "event"
    },
    {
      "anonymous": false,
      "inputs": [],
      "name": "VotingEnded",
      "type": "event"
    },
    {
      "anonymous": false,
      "inputs": [],
      "name": "VotingStarted",
      "type": "event"
    },
    {
      "inputs": [
        {
          "internalType": "address",
          "name": "account",
          "type": "address"
        }
      ],
      "name": "addBarkeeper",
      "outputs": [],
      "stateMutability": "nonpayable",
      "type": "function"
    },
    {
      "inputs": [
        {
          "internalType": "address",
          "name": "account",
          "type": "address"
        }
      ],
      "name": "addOwner",
      "outputs": [],
      "stateMutability": "nonpayable",
      "type": "function"
    },
    {
      "inputs": [],
      "name": "barIsOpen",
      "outputs": [
        {
          "internalType": "bool",
          "name": "",
          "type": "bool"
        }
      ],
      "stateMutability": "view",
      "type": "function",
      "constant": true
    },
    {
      "inputs": [],
      "name": "beerTokenContractAddress",
      "outputs": [
        {
          "internalType": "address",
          "name": "",
          "type": "address"
        }
      ],
      "stateMutability": "view",
      "type": "function",
      "constant": true
    },
    {
      "inputs": [],
      "name": "buyToken",
      "outputs": [],
      "stateMutability": "payable",
      "type": "function",
      "payable": true
    },
    {
      "inputs": [
        {
          "internalType": "uint256",
          "name": "amount",
          "type": "uint256"
        }
      ],
      "name": "cancelOrder",
      "outputs": [],
      "stateMutability": "nonpayable",
      "type": "function"
    },
    {
      "inputs": [],
      "name": "getBeerPrice",
      "outputs": [
        {
          "internalType": "uint256",
          "name": "",
          "type": "uint256"
        }
      ],
      "stateMutability": "view",
      "type": "function",
      "constant": true
    },
    {
      "inputs": [
        {
          "internalType": "address",
          "name": "account",
          "type": "address"
        }
      ],
      "name": "isBarkeeper",
      "outputs": [
        {
          "internalType": "bool",
          "name": "",
          "type": "bool"
        }
      ],
      "stateMutability": "view",
      "type": "function",
      "constant": true
    },
    {
      "inputs": [
        {
          "internalType": "address",
          "name": "account",
          "type": "address"
        }
      ],
      "name": "isOwner",
      "outputs": [
        {
          "internalType": "bool",
          "name": "",
          "type": "bool"
        }
      ],
      "stateMutability": "view",
      "type": "function",
      "constant": true
    },
    {
      "inputs": [],
      "name": "openBar",
      "outputs": [],
      "stateMutability": "nonpayable",
      "type": "function"
    },
    {
      "inputs": [
        {
          "internalType": "address",
          "name": "",
          "type": "address"
        }
      ],
      "name": "orders",
      "outputs": [
        {
          "internalType": "uint256",
          "name": "",
          "type": "uint256"
        }
      ],
      "stateMutability": "view",
      "type": "function",
      "constant": true
    },
    {
      "inputs": [
        {
          "internalType": "address payable",
          "name": "_receiver",
          "type": "address"
        },
        {
          "internalType": "uint256",
          "name": "_amount",
          "type": "uint256"
        }
      ],
      "name": "payout",
      "outputs": [],
      "stateMutability": "nonpayable",
      "type": "function"
    },
    {
      "inputs": [
        {
          "internalType": "address",
          "name": "_addr",
          "type": "address"
        }
      ],
      "name": "pendingBeer",
      "outputs": [
        {
          "internalType": "uint256",
          "name": "",
          "type": "uint256"
        }
      ],
      "stateMutability": "view",
      "type": "function",
      "constant": true
    },
    {
      "inputs": [],
      "name": "renounceBarkeeper",
      "outputs": [],
      "stateMutability": "nonpayable",
      "type": "function"
    },
    {
      "inputs": [],
      "name": "renounceOwner",
      "outputs": [],
      "stateMutability": "nonpayable",
      "type": "function"
    },
    {
      "inputs": [
        {
          "internalType": "address",
          "name": "customer",
          "type": "address"
        },
        {
          "internalType": "uint256",
          "name": "amount",
          "type": "uint256"
        }
      ],
      "name": "serveBeer",
      "outputs": [],
      "stateMutability": "nonpayable",
      "type": "function"
    },
    {
      "inputs": [
        {
          "internalType": "uint256",
          "name": "_price",
          "type": "uint256"
        }
      ],
      "name": "setBeerPrice",
      "outputs": [],
      "stateMutability": "nonpayable",
      "type": "function"
    },
    {
      "inputs": [
        {
          "internalType": "address",
          "name": "_address",
          "type": "address"
        }
      ],
      "name": "setBeerTokenContractAddress",
      "outputs": [],
      "stateMutability": "nonpayable",
      "type": "function"
    },
    {
      "inputs": [
        {
          "internalType": "address",
          "name": "_from",
          "type": "address"
        },
        {
          "internalType": "uint256",
          "name": "_value",
          "type": "uint256"
        },
        {
          "internalType": "bytes",
          "name": "_data",
          "type": "bytes"
        }
      ],
      "name": "tokenFallback",
      "outputs": [],
      "stateMutability": "nonpayable",
      "type": "function"
    },
    {
      "inputs": [
        {
          "internalType": "address",
          "name": "account",
          "type": "address"
        }
      ],
      "name": "isDJ",
      "outputs": [
        {
          "internalType": "bool",
          "name": "",
          "type": "bool"
        }
      ],
      "stateMutability": "view",
      "type": "function",
      "constant": true
    },
    {
      "inputs": [
        {
          "internalType": "address",
          "name": "account",
          "type": "address"
        }
      ],
      "name": "addDJ",
      "outputs": [],
      "stateMutability": "nonpayable",
      "type": "function"
    },
    {
      "inputs": [],
      "name": "renounceDJ",
      "outputs": [],
      "stateMutability": "nonpayable",
      "type": "function"
    },
    {
      "inputs": [],
      "name": "startVoting",
      "outputs": [],
      "stateMutability": "nonpayable",
      "type": "function"
    },
    {
      "inputs": [],
      "name": "endVoting",
      "outputs": [],
      "stateMutability": "nonpayable",
      "type": "function"
    },
    {
      "inputs": [],
      "name": "votingIsActive",
      "outputs": [
        {
          "internalType": "bool",
          "name": "",
          "type": "bool"
        }
      ],
      "stateMutability": "view",
      "type": "function",
      "constant": true
    },
    {
      "inputs": [],
      "name": "closeBar",
      "outputs": [],
      "stateMutability": "nonpayable",
      "type": "function"
    },
    {
      "inputs": [],
      "name": "playNextSong",
      "outputs": [
        {
          "internalType": "string",
          "name": "",
          "type": "string"
        }
      ],
      "stateMutability": "nonpayable",
      "type": "function"
    },
    {
      "inputs": [
        {
          "internalType": "string",
          "name": "song",
          "type": "string"
        }
      ],
      "name": "voteSong",
      "outputs": [],
      "stateMutability": "payable",
      "type": "function",
      "payable": true
    }
  ],
  "bytecode": "0x60806040523480156200001157600080fd5b506200002d336000620000b360201b62001c031790919060201c565b6000600460006101000a81548160ff0219169083151502179055506000600760006101000a81548160ff021916908315150217905550600880600181540180825580915050600190039060005260206000200160006040518060200160405280600081525090919091509080519060200190620000ac929190620001fa565b506200030e565b600073ffffffffffffffffffffffffffffffffffffffff168173ffffffffffffffffffffffffffffffffffffffff1603620000ed57600080fd5b620000ff82826200016860201b60201c565b156200010a57600080fd5b60018260000160008373ffffffffffffffffffffffffffffffffffffffff1673ffffffffffffffffffffffffffffffffffffffff16815260200190815260200160002060006101000a81548160ff0219169083151502179055505050565b60008073ffffffffffffffffffffffffffffffffffffffff168273ffffffffffffffffffffffffffffffffffffffff1603620001a357600080fd5b8260000160008373ffffffffffffffffffffffffffffffffffffffff1673ffffffffffffffffffffffffffffffffffffffff16815260200190815260200160002060009054906101000a900460ff16905092915050565b8280546200020890620002d9565b90600052602060002090601f0160209004810192826200022c576000855562000278565b82601f106200024757805160ff191683800117855562000278565b8280016001018555821562000278579182015b82811115620002775782518255916020019190600101906200025a565b5b5090506200028791906200028b565b5090565b5b80821115620002a65760008160009055506001016200028c565b5090565b7f4e487b7100000000000000000000000000000000000000000000000000000000600052602260045260246000fd5b60006002820490506001821680620002f257607f821691505b602082108103620003085762000307620002aa565b5b50919050565b612ca9806200031e6000396000f3fe6080604052600436106101b75760003560e01c806379320fe2116100ec578063c26bc73c1161008a578063cb1560e511610064578063cb1560e514610554578063cf45d7d51461056b578063da9017dc146105a8578063f40e8471146105bf576101b7565b8063c26bc73c146104e9578063c2893a9514610514578063c3403ddf1461053d576101b7565b80639f07041b116100c65780639f07041b14610474578063a48217191461049f578063b8ca2289146104a9578063c0ee0b8a146104c0576101b7565b806379320fe2146103f25780638124020e1461041b57806382e516ec14610458576101b7565b806328ef8946116101595780634c2e589d116101335780634c2e589d1461033a578063514fcac7146103635780637065cb481461038c57806374c6f719146103b5576101b7565b806328ef8946146102bb5780632b585821146102d25780632f54bf6e146102fd576101b7565b80631c0e7b8a116101955780631c0e7b8a146102375780631ec6b60a1461026257806328c23a451461027957806328ce803114610290576101b7565b806301b05336146101bc5780630993b1c0146101e5578063117de2fd1461020e575b600080fd5b3480156101c857600080fd5b506101e360048036038101906101de9190611efe565b6105fc565b005b3480156101f157600080fd5b5061020c60048036038101906102079190611efe565b61069d565b005b34801561021a57600080fd5b5061023560048036038101906102309190611f9f565b61073e565b005b34801561024357600080fd5b5061024c6107f5565b6040516102599190611fee565b60405180910390f35b34801561026e57600080fd5b5061027761081f565b005b34801561028557600080fd5b5061028e610973565b005b34801561029c57600080fd5b506102a5610a13565b6040516102b29190612018565b60405180910390f35b3480156102c757600080fd5b506102d0610a1d565b005b3480156102de57600080fd5b506102e7610b00565b6040516102f4919061204e565b60405180910390f35b34801561030957600080fd5b50610324600480360381019061031f9190611efe565b610b17565b604051610331919061204e565b60405180910390f35b34801561034657600080fd5b50610361600480360381019061035c9190612069565b610b45565b005b34801561036f57600080fd5b5061038a60048036038101906103859190612069565b610bf2565b005b34801561039857600080fd5b506103b360048036038101906103ae9190611efe565b610d3a565b005b3480156103c157600080fd5b506103dc60048036038101906103d79190611efe565b610ddb565b6040516103e9919061204e565b60405180910390f35b3480156103fe57600080fd5b5061041960048036038101906104149190611efe565b610e09565b005b34801561042757600080fd5b50610442600480360381019061043d9190611efe565b610ea0565b60405161044f9190612018565b60405180910390f35b610472600480360381019061046d91906121dc565b610ee9565b005b34801561048057600080fd5b50610489611142565b604051610496919061204e565b60405180910390f35b6104a7611159565b005b3480156104b557600080fd5b506104be61126c565b005b3480156104cc57600080fd5b506104e760048036038101906104e29190612285565b61130c565b005b3480156104f557600080fd5b506104fe61157e565b60405161050b9190612381565b60405180910390f35b34801561052057600080fd5b5061053b600480360381019061053691906123a3565b61180d565b005b34801561054957600080fd5b50610552611996565b005b34801561056057600080fd5b50610569611a81565b005b34801561057757600080fd5b50610592600480360381019061058d9190611efe565b611b21565b60405161059f919061204e565b60405180910390f35b3480156105b457600080fd5b506105bd611b4f565b005b3480156105cb57600080fd5b506105e660048036038101906105e19190611efe565b611beb565b6040516105f39190612018565b60405180910390f35b610610326000611cae90919063ffffffff16565b61064f576040517f08c379a00000000000000000000000000000000000000000000000000000000081526004016106469061242f565b60405180910390fd5b610663816001611c0390919063ffffffff16565b7fddaea0f56ddd451545a029e309c9900e717dd4fc8fbd099d1fa0f6e8622d1eea816040516106929190611fee565b60405180910390a150565b6106b1326000611cae90919063ffffffff16565b6106f0576040517f08c379a00000000000000000000000000000000000000000000000000000000081526004016106e79061242f565b60405180910390fd5b610704816006611c0390919063ffffffff16565b7f202f88e621a5369ca9215aa0d6366766aa92731a0e77841489a7ae3161b2198e816040516107339190611fee565b60405180910390a150565b610752326000611cae90919063ffffffff16565b610791576040517f08c379a00000000000000000000000000000000000000000000000000000000081526004016107889061242f565b60405180910390fd5b6000814761079f919061247e565b10156107aa57600080fd5b8173ffffffffffffffffffffffffffffffffffffffff166108fc829081150290604051600060405180830381858888f193505050501580156107f0573d6000803e3d6000fd5b505050565b6000600260009054906101000a900473ffffffffffffffffffffffffffffffffffffffff16905090565b610833326006611cae90919063ffffffff16565b610872576040517f08c379a0000000000000000000000000000000000000000000000000000000008152600401610869906124fe565b60405180910390fd5b600460009054906101000a900460ff166108c1576040517f08c379a00000000000000000000000000000000000000000000000000000000081526004016108b89061256a565b60405180910390fd5b6000600190505b6008805490508110156109295760006009600883815481106108ed576108ec61258a565b5b9060005260206000200160405161090491906126b8565b9081526020016040518091039020819055508080610921906126cf565b9150506108c8565b506001600760006101000a81548160ff0219169083151502179055507f877e2548498f42b7975a186b94ef1d32c86d420b7b806dd2be2bea293b89590460405160405180910390a1565b610987326000611cae90919063ffffffff16565b6109c6576040517f08c379a00000000000000000000000000000000000000000000000000000000081526004016109bd9061242f565b60405180910390fd5b6109da326000611d3f90919063ffffffff16565b7f58619076adf5bb0943d100ef88d52d7c3fd691b19d3a9071b555b651fbf418da32604051610a099190611fee565b60405180910390a1565b6000600354905090565b610a31326001611cae90919063ffffffff16565b610a70576040517f08c379a0000000000000000000000000000000000000000000000000000000008152600401610a6790612763565b60405180910390fd5b6000600460006101000a81548160ff0219169083151502179055507fe311bc1ca37e125782c35af946e36aaca07c4510eeffada2ba114c0e9774fbb460405160405180910390a16000600760006101000a81548160ff0219169083151502179055507f7a19ed057db79e3c2fa0b97a54b43bef4fce74b31bb6c01af514b9a18a7f70ab60405160405180910390a1565b6000600460009054906101000a900460ff16905090565b6000610b2d826000611cae90919063ffffffff16565b15610b3b5760019050610b40565b600090505b919050565b610b59326000611cae90919063ffffffff16565b610b98576040517f08c379a0000000000000000000000000000000000000000000000000000000008152600401610b8f9061242f565b60405180910390fd5b600460009054906101000a900460ff1615610be8576040517f08c379a0000000000000000000000000000000000000000000000000000000008152600401610bdf906127cf565b60405180910390fd5b8060038190555050565b80600560003373ffffffffffffffffffffffffffffffffffffffff1673ffffffffffffffffffffffffffffffffffffffff1681526020019081526020016000206000828254610c41919061247e565b92505081905550600260009054906101000a900473ffffffffffffffffffffffffffffffffffffffff1673ffffffffffffffffffffffffffffffffffffffff1663be45fd6233836040518363ffffffff1660e01b8152600401610ca592919061282c565b6020604051808303816000875af1158015610cc4573d6000803e3d6000fd5b505050506040513d601f19601f82011682018060405250810190610ce89190612894565b503373ffffffffffffffffffffffffffffffffffffffff167f9e9d0e3d8e80951b03f40584d81f0396ec2899fe7267a87e264db8309b17ac6082604051610d2f9190612018565b60405180910390a250565b610d4e326000611cae90919063ffffffff16565b610d8d576040517f08c379a0000000000000000000000000000000000000000000000000000000008152600401610d849061242f565b60405180910390fd5b610da1816000611c0390919063ffffffff16565b7f994a936646fe87ffe4f1e469d3d6aa417d6b855598397f323de5b449f765f0c381604051610dd09190611fee565b60405180910390a150565b6000610df1826006611cae90919063ffffffff16565b15610dff5760019050610e04565b600090505b919050565b610e1d326000611cae90919063ffffffff16565b610e5c576040517f08c379a0000000000000000000000000000000000000000000000000000000008152600401610e539061242f565b60405180910390fd5b80600260006101000a81548173ffffffffffffffffffffffffffffffffffffffff021916908373ffffffffffffffffffffffffffffffffffffffff16021790555050565b6000600560008373ffffffffffffffffffffffffffffffffffffffff1673ffffffffffffffffffffffffffffffffffffffff168152602001908152602001600020549050919050565b600760009054906101000a900460ff16610f38576040517f08c379a0000000000000000000000000000000000000000000000000000000008152600401610f2f9061290d565b60405180910390fd5b600060035403610f7d576040517f08c379a0000000000000000000000000000000000000000000000000000000008152600401610f7490612979565b60405180910390fd5b6000600a82604051610f8f91906129ca565b9081526020016040518091039020540361103c57600881908060018154018082558091505060019003906000526020600020016000909190919091509080519060200190610fde929190611de9565b506001600880549050610ff1919061247e565b600a8260405161100191906129ca565b908152602001604051809103902081905550600160098260405161102591906129ca565b908152602001604051809103902081905550611073565b600160098260405161104e91906129ca565b9081526020016040518091039020600082825461106b91906129e1565b925050819055505b6000600354346110839190612a66565b9050600260009054906101000a900473ffffffffffffffffffffffffffffffffffffffff1673ffffffffffffffffffffffffffffffffffffffff1663a9059cbb3360035484346110d3919061247e565b6110dd9190612a97565b6040518363ffffffff1660e01b81526004016110fa929190612ac8565b6020604051808303816000875af1158015611119573d6000803e3d6000fd5b505050506040513d601f19601f8201168201806040525081019061113d9190612894565b505050565b6000600760009054906101000a900460ff16905090565b60006003540361119e576040517f08c379a000000000000000000000000000000000000000000000000000000000815260040161119590612979565b60405180910390fd5b6000600354346111ae9190612a66565b9050600260009054906101000a900473ffffffffffffffffffffffffffffffffffffffff1673ffffffffffffffffffffffffffffffffffffffff1663a9059cbb3360035484346111fe919061247e565b6112089190612a97565b6040518363ffffffff1660e01b8152600401611225929190612ac8565b6020604051808303816000875af1158015611244573d6000803e3d6000fd5b505050506040513d601f19601f820116820180604052508101906112689190612894565b5050565b611280326006611cae90919063ffffffff16565b6112bf576040517f08c379a00000000000000000000000000000000000000000000000000000000081526004016112b6906124fe565b60405180910390fd5b6112d3326006611d3f90919063ffffffff16565b7fa06a71de40c2d39b7233b9683752a1966610faf02c36cc9ef3b24f8152987b43326040516113029190611fee565b60405180910390a1565b600260009054906101000a900473ffffffffffffffffffffffffffffffffffffffff1673ffffffffffffffffffffffffffffffffffffffff163373ffffffffffffffffffffffffffffffffffffffff161461139c576040517f08c379a000000000000000000000000000000000000000000000000000000000815260040161139390612b3d565b60405180910390fd5b6040516020016113ab90612ba9565b6040516020818303038152906040528051906020012082826040516113d1929190612bee565b604051809103902003611484576113f2846000611cae90919063ffffffff16565b611431576040517f08c379a00000000000000000000000000000000000000000000000000000000081526004016114289061242f565b60405180910390fd5b8373ffffffffffffffffffffffffffffffffffffffff167f474cef3e0be75022a5c778de128b4eeb1bd3b6408c87c2439689cb58ad71615d846040516114779190612018565b60405180910390a2611578565b600460009054906101000a900460ff166114d3576040517f08c379a00000000000000000000000000000000000000000000000000000000081526004016114ca9061256a565b60405180910390fd5b82600560008673ffffffffffffffffffffffffffffffffffffffff1673ffffffffffffffffffffffffffffffffffffffff168152602001908152602001600020600082825461152291906129e1565b925050819055508373ffffffffffffffffffffffffffffffffffffffff167f53b7604ee49f0e8a26e6ae4f75c962c8c467157665b09391be96ddbfcb2b74df8460405161156f9190612018565b60405180910390a25b50505050565b6060611594326006611cae90919063ffffffff16565b6115d3576040517f08c379a00000000000000000000000000000000000000000000000000000000081526004016115ca906124fe565b60405180910390fd5b600460009054906101000a900460ff16611622576040517f08c379a00000000000000000000000000000000000000000000000000000000081526004016116199061256a565b60405180910390fd5b60016008805490501161166a576040517f08c379a000000000000000000000000000000000000000000000000000000000815260040161166190612c53565b60405180910390fd5b600080600190506000600190505b60088054905081101561171d578260096008838154811061169c5761169b61258a565b5b906000526020600020016040516116b391906126b8565b908152602001604051809103902054111561170a576009600882815481106116de576116dd61258a565b5b906000526020600020016040516116f591906126b8565b90815260200160405180910390205492508091505b8080611715906126cf565b915050611678565b5060006009600883815481106117365761173561258a565b5b9060005260206000200160405161174d91906126b8565b908152602001604051809103902081905550600881815481106117735761177261258a565b5b906000526020600020018054611788906125e8565b80601f01602080910402602001604051908101604052809291908181526020018280546117b4906125e8565b80156118015780601f106117d657610100808354040283529160200191611801565b820191906000526020600020905b8154815290600101906020018083116117e457829003601f168201915b50505050509250505090565b600460009054906101000a900460ff1661185c576040517f08c379a00000000000000000000000000000000000000000000000000000000081526004016118539061256a565b60405180910390fd5b611870326001611cae90919063ffffffff16565b6118af576040517f08c379a00000000000000000000000000000000000000000000000000000000081526004016118a690612763565b60405180910390fd5b80600560008473ffffffffffffffffffffffffffffffffffffffff1673ffffffffffffffffffffffffffffffffffffffff16815260200190815260200160002060008282546118fe919061247e565b92505081905550600260009054906101000a900473ffffffffffffffffffffffffffffffffffffffff1673ffffffffffffffffffffffffffffffffffffffff166342966c68826040518263ffffffff1660e01b81526004016119609190612018565b600060405180830381600087803b15801561197a57600080fd5b505af115801561198e573d6000803e3d6000fd5b505050505050565b6119aa326006611cae90919063ffffffff16565b6119e9576040517f08c379a00000000000000000000000000000000000000000000000000000000081526004016119e0906124fe565b60405180910390fd5b600460009054906101000a900460ff16611a38576040517f08c379a0000000000000000000000000000000000000000000000000000000008152600401611a2f9061256a565b60405180910390fd5b6000600760006101000a81548160ff0219169083151502179055507f7a19ed057db79e3c2fa0b97a54b43bef4fce74b31bb6c01af514b9a18a7f70ab60405160405180910390a1565b611a95326001611cae90919063ffffffff16565b611ad4576040517f08c379a0000000000000000000000000000000000000000000000000000000008152600401611acb90612763565b60405180910390fd5b611ae8326001611d3f90919063ffffffff16565b7f24d55ebffd1d5ed6113bda634d47a96d6d0a042d564143067dc2f3c47734644632604051611b179190611fee565b60405180910390a1565b6000611b37826001611cae90919063ffffffff16565b15611b455760019050611b4a565b600090505b919050565b611b63326001611cae90919063ffffffff16565b611ba2576040517f08c379a0000000000000000000000000000000000000000000000000000000008152600401611b9990612763565b60405180910390fd5b6001600460006101000a81548160ff0219169083151502179055507feacbe933e9d08a23f80dc21826bcef42d89f47da76688dc18a99d7fd43292bd760405160405180910390a1565b60056020528060005260406000206000915090505481565b600073ffffffffffffffffffffffffffffffffffffffff168173ffffffffffffffffffffffffffffffffffffffff1603611c3c57600080fd5b611c468282611cae565b15611c5057600080fd5b60018260000160008373ffffffffffffffffffffffffffffffffffffffff1673ffffffffffffffffffffffffffffffffffffffff16815260200190815260200160002060006101000a81548160ff0219169083151502179055505050565b60008073ffffffffffffffffffffffffffffffffffffffff168273ffffffffffffffffffffffffffffffffffffffff1603611ce857600080fd5b8260000160008373ffffffffffffffffffffffffffffffffffffffff1673ffffffffffffffffffffffffffffffffffffffff16815260200190815260200160002060009054906101000a900460ff16905092915050565b600073ffffffffffffffffffffffffffffffffffffffff168173ffffffffffffffffffffffffffffffffffffffff1603611d7857600080fd5b611d828282611cae565b611d8b57600080fd5b60008260000160008373ffffffffffffffffffffffffffffffffffffffff1673ffffffffffffffffffffffffffffffffffffffff16815260200190815260200160002060006101000a81548160ff0219169083151502179055505050565b828054611df5906125e8565b90600052602060002090601f016020900481019282611e175760008555611e5e565b82601f10611e3057805160ff1916838001178555611e5e565b82800160010185558215611e5e579182015b82811115611e5d578251825591602001919060010190611e42565b5b509050611e6b9190611e6f565b5090565b5b80821115611e88576000816000905550600101611e70565b5090565b6000604051905090565b600080fd5b600080fd5b600073ffffffffffffffffffffffffffffffffffffffff82169050919050565b6000611ecb82611ea0565b9050919050565b611edb81611ec0565b8114611ee657600080fd5b50565b600081359050611ef881611ed2565b92915050565b600060208284031215611f1457611f13611e96565b5b6000611f2284828501611ee9565b91505092915050565b6000611f3682611ea0565b9050919050565b611f4681611f2b565b8114611f5157600080fd5b50565b600081359050611f6381611f3d565b92915050565b6000819050919050565b611f7c81611f69565b8114611f8757600080fd5b50565b600081359050611f9981611f73565b92915050565b60008060408385031215611fb657611fb5611e96565b5b6000611fc485828601611f54565b9250506020611fd585828601611f8a565b9150509250929050565b611fe881611ec0565b82525050565b60006020820190506120036000830184611fdf565b92915050565b61201281611f69565b82525050565b600060208201905061202d6000830184612009565b92915050565b60008115159050919050565b61204881612033565b82525050565b6000602082019050612063600083018461203f565b92915050565b60006020828403121561207f5761207e611e96565b5b600061208d84828501611f8a565b91505092915050565b600080fd5b600080fd5b6000601f19601f8301169050919050565b7f4e487b7100000000000000000000000000000000000000000000000000000000600052604160045260246000fd5b6120e9826120a0565b810181811067ffffffffffffffff82111715612108576121076120b1565b5b80604052505050565b600061211b611e8c565b905061212782826120e0565b919050565b600067ffffffffffffffff821115612147576121466120b1565b5b612150826120a0565b9050602081019050919050565b82818337600083830152505050565b600061217f61217a8461212c565b612111565b90508281526020810184848401111561219b5761219a61209b565b5b6121a684828561215d565b509392505050565b600082601f8301126121c3576121c2612096565b5b81356121d384826020860161216c565b91505092915050565b6000602082840312156121f2576121f1611e96565b5b600082013567ffffffffffffffff8111156122105761220f611e9b565b5b61221c848285016121ae565b91505092915050565b600080fd5b600080fd5b60008083601f84011261224557612244612096565b5b8235905067ffffffffffffffff81111561226257612261612225565b5b60208301915083600182028301111561227e5761227d61222a565b5b9250929050565b6000806000806060858703121561229f5761229e611e96565b5b60006122ad87828801611ee9565b94505060206122be87828801611f8a565b935050604085013567ffffffffffffffff8111156122df576122de611e9b565b5b6122eb8782880161222f565b925092505092959194509250565b600081519050919050565b600082825260208201905092915050565b60005b83811015612333578082015181840152602081019050612318565b83811115612342576000848401525b50505050565b6000612353826122f9565b61235d8185612304565b935061236d818560208601612315565b612376816120a0565b840191505092915050565b6000602082019050818103600083015261239b8184612348565b905092915050565b600080604083850312156123ba576123b9611e96565b5b60006123c885828601611ee9565b92505060206123d985828601611f8a565b9150509250929050565b7f49535f4e4f545f414e5f4f574e45520000000000000000000000000000000000600082015250565b6000612419600f83612304565b9150612424826123e3565b602082019050919050565b600060208201905081810360008301526124488161240c565b9050919050565b7f4e487b7100000000000000000000000000000000000000000000000000000000600052601160045260246000fd5b600061248982611f69565b915061249483611f69565b9250828210156124a7576124a661244f565b5b828203905092915050565b7f49535f4e4f545f414e5f444a0000000000000000000000000000000000000000600082015250565b60006124e8600c83612304565b91506124f3826124b2565b602082019050919050565b60006020820190508181036000830152612517816124db565b9050919050565b7f4241525f49535f4e4f545f4f50454e0000000000000000000000000000000000600082015250565b6000612554600f83612304565b915061255f8261251e565b602082019050919050565b6000602082019050818103600083015261258381612547565b9050919050565b7f4e487b7100000000000000000000000000000000000000000000000000000000600052603260045260246000fd5b7f4e487b7100000000000000000000000000000000000000000000000000000000600052602260045260246000fd5b6000600282049050600182168061260057607f821691505b602082108103612613576126126125b9565b5b50919050565b600081905092915050565b60008190508160005260206000209050919050565b60008154612646816125e8565b6126508186612619565b9450600182166000811461266b576001811461267c576126af565b60ff198316865281860193506126af565b61268585612624565b60005b838110156126a757815481890152600182019150602081019050612688565b838801955050505b50505092915050565b60006126c48284612639565b915081905092915050565b60006126da82611f69565b91507fffffffffffffffffffffffffffffffffffffffffffffffffffffffffffffffff820361270c5761270b61244f565b5b600182019050919050565b7f49535f4e4f545f415f4241524b45455045520000000000000000000000000000600082015250565b600061274d601283612304565b915061275882612717565b602082019050919050565b6000602082019050818103600083015261277c81612740565b9050919050565b7f4241525f49535f4f50454e000000000000000000000000000000000000000000600082015250565b60006127b9600b83612304565b91506127c482612783565b602082019050919050565b600060208201905081810360008301526127e8816127ac565b9050919050565b600082825260208201905092915050565b60008082015250565b60006128166004836127ef565b915061282182612800565b602082019050919050565b60006060820190506128416000830185611fdf565b61284e6020830184612009565b818103604083015261285f81612809565b90509392505050565b61287181612033565b811461287c57600080fd5b50565b60008151905061288e81612868565b92915050565b6000602082840312156128aa576128a9611e96565b5b60006128b88482850161287f565b91505092915050565b7f4e4f5f4143544956455f564f54494e4700000000000000000000000000000000600082015250565b60006128f7601083612304565b9150612902826128c1565b602082019050919050565b60006020820190508181036000830152612926816128ea565b9050919050565b7f4e4f5f424545525f505249434500000000000000000000000000000000000000600082015250565b6000612963600d83612304565b915061296e8261292d565b602082019050919050565b6000602082019050818103600083015261299281612956565b9050919050565b60006129a4826122f9565b6129ae8185612619565b93506129be818560208601612315565b80840191505092915050565b60006129d68284612999565b915081905092915050565b60006129ec82611f69565b91506129f783611f69565b9250827fffffffffffffffffffffffffffffffffffffffffffffffffffffffffffffffff03821115612a2c57612a2b61244f565b5b828201905092915050565b7f4e487b7100000000000000000000000000000000000000000000000000000000600052601260045260246000fd5b6000612a7182611f69565b9150612a7c83611f69565b925082612a8c57612a8b612a37565b5b828206905092915050565b6000612aa282611f69565b9150612aad83611f69565b925082612abd57612abc612a37565b5b828204905092915050565b6000604082019050612add6000830185611fdf565b612aea6020830184612009565b9392505050565b7f57524f4e475f544f4b454e5f5459504500000000000000000000000000000000600082015250565b6000612b27601083612304565b9150612b3282612af1565b602082019050919050565b60006020820190508181036000830152612b5681612b1a565b9050919050565b7f737570706c790000000000000000000000000000000000000000000000000000600082015250565b6000612b93600683612619565b9150612b9e82612b5d565b600682019050919050565b6000612bb482612b86565b9150819050919050565b600081905092915050565b6000612bd58385612bbe565b9350612be283858461215d565b82840190509392505050565b6000612bfb828486612bc9565b91508190509392505050565b7f4e4f5f534f4e475f494e5f504c41594c49535400000000000000000000000000600082015250565b6000612c3d601383612304565b9150612c4882612c07565b602082019050919050565b60006020820190508181036000830152612c6c81612c30565b905091905056fea264697066735822122047e782b0ea9a8be504285bf87b7f6e2e0ad6909601816f1b8ba47744f23d658a64736f6c634300080d0033",
  "immutableReferences": {},
  "source": "// SPDX-License-Identifier: MIT\r\npragma solidity ^0.8.0;\r\n\r\nimport \"./Roles.sol\";\r\nimport \"./BeerBar.sol\";\r\n\r\ncontract SongVotingBar is BeerBar {\r\n    using Roles for Roles.Role;\r\n\r\n    Roles.Role private djs;\r\n    bool private votingActive;\r\n    string [] private songs;\r\n    mapping(string => uint256) private votes;\r\n    mapping(string => uint256) private indexes;\r\n\r\n    event DJAdded(address account);\r\n    event DJRemoved(address account);\r\n    event VotingStarted();\r\n    event VotingEnded();\r\n\r\n    constructor () BeerBar() {\r\n        votingActive = false;\r\n        //so that index 0 does not exist for songs\r\n        songs.push(\"\");\r\n    }\r\n\r\n    modifier isDJModifier(){\r\n        require(djs.has(tx.origin), \"IS_NOT_AN_DJ\");\r\n        _;\r\n    }\r\n\r\n    modifier votingStarted(){\r\n        require(votingActive, \"NO_ACTIVE_VOTING\");\r\n        _;\r\n    }\r\n\r\n    function isDJ(address account) external view returns (bool) {\r\n       if(djs.has(account)){\r\n           return true;\r\n       }\r\n        return false;\r\n    }\r\n\r\n    function addDJ(address account) external isBarOwner {\r\n        djs.add(account);\r\n        emit DJAdded(account);\r\n    }\r\n\r\n    function renounceDJ() external isDJModifier {\r\n        djs.remove(tx.origin);\r\n        emit DJRemoved(tx.origin);\r\n    }\r\n\r\n     //votes form before will be set to 0\r\n    function startVoting() external isDJModifier isBarOpen {\r\n        for (uint i=1; i<songs.length; i++){\r\n            votes[songs[i]] = 0;\r\n        }\r\n        votingActive = true;\r\n        emit VotingStarted();\r\n    }\r\n\r\n    function endVoting() external isDJModifier isBarOpen {\r\n        votingActive = false;\r\n        emit VotingEnded();\r\n    }\r\n\r\n    function votingIsActive() external view returns (bool) {\r\n        return votingActive;\r\n    }\r\n\r\n    function closeBar() override external isBarKeeperModifier {\r\n        isOpen = false;\r\n        emit BarClosed();\r\n        votingActive = false;\r\n        emit VotingEnded();\r\n    }\r\n\r\n    //if song are in playlist, plays songs with most vote, if all votes are 0, takes first song that was pushed\r\n    function playNextSong() external isDJModifier isBarOpen returns (string memory) {\r\n        require(songs.length > 1, \"NO_SONG_IN_PLAYLIST\");\r\n        uint256 maxVote = 0;\r\n        uint256 maxVotedIndex = 1;\r\n        for (uint i=1; i<songs.length; i++){\r\n            if(votes[songs[i]] > maxVote){\r\n                maxVote = votes[songs[i]];\r\n                maxVotedIndex = i;\r\n            }\r\n        }\r\n        votes[songs[maxVotedIndex]] = 0;\r\n        return songs[maxVotedIndex];\r\n    }\r\n\r\n    function voteSong(string memory song) external payable votingStarted {\r\n        require(beerPrice != 0, \"NO_BEER_PRICE\");\r\n        if(indexes[song] == 0){\r\n            songs.push(song);\r\n            indexes[song] = songs.length - 1;\r\n            votes[song] = 1;\r\n        } else {\r\n            votes[song] += 1;\r\n        }\r\n        uint tip = msg.value%beerPrice;\r\n        beerTokenContract.transfer(msg.sender, (msg.value-tip)/beerPrice);\r\n    }\r\n\r\n\r\n}\r\n",
  "sourcePath": "C:\\Users\\Jakob\\Documents\\Master\\1.Semester\\sc\\BeerBar\\contracts\\SongVotingBar.sol",
  "compiler": {
    "name": "solc",
    "version": "0.8.13+commit.abaa5c0e.Emscripten.clang"
  },
  "schemaVersion": "3.4.7",
  "updatedAt": "2022-04-20T09:57:09.713Z",
  "networkType": "ethereum",
  "devdoc": {
    "kind": "dev",
    "methods": {},
    "version": 1
  },
  "userdoc": {
    "kind": "user",
    "methods": {},
    "version": 1
  }
}